:10000000E0C10000FAC10000F8C10000F6C1000024
:10001000F4C10000F2C10000F0C100000C944214D1
:10002000ECC100008EC300000C940E23E6C100005A
:10003000E4C10000E2C10000E0C10000DEC1000038
:10004000DCC100000C94EF13D8C10000D6C1000041
:10005000D4C10000D2C10000D0C100000C949809A6
:10006000CCC10000CAC10000C8C10000C6C1000068
:10007000C4C10000C2C10000C0C10000BEC1000078
:10008000BCC10000BAC10000B8C10000B6C1000088
:1000900071C30000B2C10000B0C10000AEC10000D9
:1000A000ACC10000AAC10000A8C10000C706CE066E
:1000B000D506FD06DC06E306FD06EA06F106FD06AA
:1000C000F7061F2051203C2151203C219C20C320B9
:1000D0003C21DF20072141161742D50B436A0865F2
:1000E000FE0B46E20D66CF1E47E50D680F0F6990C7
:1000F0001A4B8E0E4D230E52520B54A31E74E6095A
:1001000056310C57940B588A1078310859941C7A40
:10011000DF190000002A03430055004C0038003668
:10012000003800000016036200750073007700615C
:1001300000720065002E00640065000000040309E1
:100140000409024300020100803209040000010298
:10015000020100052400011005240103010424020A
:10016000060524060001070582030800FF090401B3
:1001700000020A0000000705040240000007058392
:10018000024000001201100102000008EB034B20A6
:10019000000001020001202F2000203D2000072E3A
:1001A000050DD391FF080500000C0021656A2D3B69
:1001B0001322F862073F181D1CC700B0876BF8B602
:1001C00011EA2A001F41000D2E2D07D3913D043264
:1001D0000000060021656A55E43023B900070018C5
:1001E000146C070090876BF85611E92A001F410034
:1001F00000030F1E2627000000030F1E2536386758
:1002000000030F256740605000030F27518883814A
:1002100000030F2750C8C3C20027000000000000E1
:100220000067000000000000005000000000000017
:10023000008100000000000000C20000000000007B
:100240005620312E36372043554C3836380043552A
:100250004C5F563300202F2000203D20004C4F568D
:10026000460D0A00424F56460D0A004552523A4387
:1002700043410D0A000B08105B11F81547191D1AB0
:100280001C1BC71C001DB221B623EA0007022E0367
:100290000D04E905CA070C0B060D210E650F6A1047
:1002A000C81193120315341733181819161B43215C
:1002B000562500261129592C812D353EC3000102F7
:1002C0002E030104AA050F06FF070008000B060D08
:1002D000210E740FAD104B11F81216137215411840
:1002E0001819161B0323E9242A2500261F3E500057
:1002F00001022E030104AA050F06FF070008000BE8
:10030000060D210E660F6610CA11931206135215C0
:1003100035181819161B0323E9242A2500261F3E29
:10032000500001022E0301045505F006FF070008E6
:10033000000B060D210E660F9910591183121E1322
:10034000521535181819161B0323E9242A250026EF
:100350001F3E500D2E2D07D3913D043200000600A4
:1003600010B07155E43023B900070018146C070071
:1003700090876BF85611E92A001F41000D2E2D07BA
:10038000D3913D04320000060010ABA5550A30237E
:10039000B900070018146C070090876BF85611E934
:1003A0002A001F410020697320756E6B6E6F776E97
:1003B0002920557365206F6E65206F66003F2028E9
:1003C000000011241FBECFEFDAE0DEBFCDBF11E089
:1003D000A0E0B1E0ECE6FDE402C005900D92AC3B7C
:1003E000B107D9F724E0ACEBB1E001C01D92AA3C03
:1003F000B207E1F7F8D30C94B42602CE2AB1242B2D
:100400002AB92BB1342F309523233BB1432B3FB76F
:10041000F894FC01680F791FE617F707C1F0819186
:1004200098E04BB9000000C087FF2BB9880F00008F
:1004300000C000C000C02BB900C000C000C000C098
:1004400000C000C000C000C09A9559F7E5CF3FBF7B
:1004500008959B01220F331F620F731FCFDF8FEAB6
:1004600094E00197F1F700C00000089540E2F1CF59
:1004700027E030E090E05C98EFE8F1E03197F1F7A9
:1004800000C00000AC01022E02C0559547950A94A9
:10049000E2F7BA016170772740FD06C0EFE8F1E0AE
:1004A0003197F1F700C000005C9AEFE8F1E0319776
:1004B000F1F700C00000672B31F0EFE8F1E0319771
:1004C000F1F700C0000021503109A8F65C988FE8D0
:1004D00091E00197F1F700C000005C9AEFE8F1E0CD
:1004E0003197F1F700C0000008955C988FE79EE314
:1004F0000197F1F700C000005C9A8FED91E0019741
:10050000F1F700C000005C988FEC97E00197F1F7DD
:1005100000C000005C9A9AE19A95F1F700C0089536
:10052000AC015C98E1E0F0E02A9895B18FEF860F7E
:100530009F0102C0220F331F8A95E2F7242335233F
:10054000232B11F420E001C024E0922B95B92998C7
:100550008FE891E00197F1F700C00000299A8FE839
:1005600091E00197F1F700C000006150E9F62A9888
:100570005C9A0895CF93DF93C8E8D1E060E1899158
:100580009991CEDF21E0CE39D207C1F7C0E0D1E0AA
:1005900081E0C838D80789F089919991009751F482
:1005A0008FEF9BED25E0815090402040E1F700C0A7
:1005B0000000EECF69E0B4DFEBCFDF91CF9108957B
:1005C00090917A00976090937A0090E490937B00EA
:1005D00090937C00883028F0885090917B00906246
:1005E00003C090917B009F7D90937B0090917C0055
:1005F0008770892B80937C0080917A00806880933B
:100600007A008FE39FE10197F1F700C0000080912D
:100610007A00806480937A0080917A0086FDFCCF16
:10062000809178002091790090E0922B08958EE5DA
:1006300080937C0080917A00806880937A0080911A
:100640007B008F7D80937B008FE39FE10197F1F723
:1006500000C0000080917A00806480937A008091CD
:100660007A0086FDFCCF80917A00806480937A00C6
:1006700080917A0086FDFCCF2091780080917900EE
:1006800030E0382B032E000C440B550B64EB7BE25F
:1006900081E190E00E94E523C901089587EC8093F1
:1006A0007C0080E280937B0080917A00877D80933C
:1006B0007A0080917A00806880937A008FE39FE1CE
:1006C0000197F1F700C0000080917A008064809368
:1006D0007A0080917A0086FDFCCF80917A00806458
:1006E00080937A0080917A0086FDFCCF809178001B
:1006F0002091790090E0922B0895A2E0B0E0E3E829
:10070000F3E00C9417242091C6043091C7042115FE
:10071000310511F42AEC34E0CE010196821B930BD3
:100720002296E2E00C943324F894880F8093BA0068
:1007300085EC8093BC008FEF8093D5028093EA0212
:1007400008951F920F920FB60F9211248F939F93CB
:10075000189909C08091D9029091DA02019690937C
:10076000DA028093D9029F918F910F900FBE0F9064
:100770001F9018951F920F920FB60F9211242F936E
:100780003F934F935F936F937F938F939F93AF9319
:10079000BF93EF93FF938091B900887F803661F01B
:1007A00028F4811103C21092BC0000C2803859F0B5
:1007B000883A09F4BBC0FAC185EC8093BC008FEF86
:1007C0008093D502F6C12091D5022F3F49F4809144
:1007D000BB008093E9021092D5021092EA028AC00F
:1007E0002F5F2093D5029091E90231E09C3809F007
:1007F00030E081E0213009F080E0332339F08823B4
:1008000029F08091BB008093D70274C0223039F464
:10081000332389F08091BB008093D6026BC02330D4
:1008200051F4332341F08091BB008093D80281E0E2
:100830008093D0025FC0973841F4882309F45AC0EE
:100840008091BB0080939E0155C09D3859F4882348
:1008500009F450C08091BB008F3F11F4469A4AC002
:10086000469848C09E3859F4882309F443C08091C3
:10087000BB008F3F11F42C9A3DC02C983BC09F3891
:1008800051F48823B9F18091BB008F3F11F42E9A67
:1008900031C02E982FC0903951F4882359F180919E
:1008A000BB008F3F11F4479A25C0479823C0913968
:1008B00051F48823F9F08091BB008F3F11F4729AB4
:1008C00019C0729817C0923971F4882399F08091F9
:1008D000BB008F3F21F08091BB00813011F42D9A35
:1008E00009C02D9807C0933929F4882319F0809105
:1008F000BB0087BD85EC8093BC002091BB0091E0DC
:100900008091E902823909F090E081E03091D502CE
:10091000313009F080E0892309F44BC1213009F01E
:1009200048C180EA8A95F1F72D9843C19091E90278
:1009300031E0911130E04091EA0281E0411180E024
:10094000332329F0882319F08091ED0221C121E0A1
:10095000413009F020E0332329F0222319F080915F
:10096000EE0216C131E0913009F030E0882329F021
:10097000332319F08091CE020BC1222329F03323B7
:1009800019F08091CF0204C131E0923009F030E0DB
:10099000882329F0332319F08091E702F9C022233C
:1009A00029F0332319F08091E802F2C031E093304E
:1009B00009F030E0882329F0332319F08091D30225
:1009C000E7C0222329F0332319F08091D402E0C03C
:1009D00031E0943009F030E0882329F0332319F016
:1009E0008091EF02D5C0222329F0332319F08091A2
:1009F000F002CEC031E0953009F030E0882329F0D4
:100A0000332319F08091E302C3C0222329F033235A
:100A100019F08091E402BCC031E0963009F030E07A
:100A2000882329F0332319F08091DD02B1C02223FD
:100A300029F0332319F08091DE02AAC0973029F4FF
:100A4000882319F080919F01A3C031E0983009F00C
:100A500030E0882329F0332319F08091DB0298C01D
:100A6000222329F0332319F08091DC0291C031E078
:100A7000993009F030E0882329F0332319F0809170
:100A8000CC0286C0222329F0332319F08091CD02B5
:100A90007FC031E09A3009F030E0882329F0332319
:100AA00019F08091D10274C0222329F0332319F068
:100AB0008091D2026DC031E09B3009F030E0882394
:100AC00021F0332311F019DE63C0222331F03323E8
:100AD00021F013DE9093BB0060C031E09C3009F040
:100AE00030E0882329F0332319F08091D70250C0D9
:100AF000222329F0332319F08091D60249C04230D5
:100B000029F4332319F08091D80242C09D3029F492
:100B1000882369F1369B3FC022C09E3029F4882388
:100B200031F11C9B38C01BC09F3029F48823F9F099
:100B30001E9B31C014C0903129F48823C1F0379B2B
:100B40002AC00DC0913129F4882389F0629B23C00B
:100B500006C0923131F4882351F01D9B1CC08FEFE9
:100B600017C0933121F4882311F087B511C031E00B
:100B7000943109F030E0882329F0332319F0809173
:100B8000DF0206C0222339F0332329F08091E002EE
:100B90008093BB0002C01092BB008091EA028F5F7D
:100BA0008093EA0285E08A95F1F7000085EC809356
:100BB000BC00FF91EF91BF91AF919F918F917F9179
:100BC0006F915F914F913F912F910F900FBE0F90BA
:100BD0001F901895F89481E085BF82E085BFE0E022
:100BE000F8E3099508959FE088E10FB6F894A89579
:100BF000809360000FBE9093600090E080E80FB695
:100C0000F89480936100909361000FBE04B603FED8
:100C10000AC083E390E02CD5882329F060E083E3C9
:100C200090E021D5D7DF109280008AE08093810088
:100C300084B7877F84BF10BA88E78AB91DB887EF69
:100C400084B9289880EC87B98EEB87BDC1E0C5BD1B
:100C500081E884BD80916E00816080936E008AE29D
:100C600063DD8091680081608093680080916B00F3
:100C7000816080936B0078948FEF8093D70280938C
:100C8000D6028093D80261E070E086ED92E0EEDB60
:100C900071DC2BDC1092D7021092D6021092D8028F
:100CA00061E070E086ED92E0E1DB87ED87BD0E94B8
:100CB000F11FC9D50E94E3220E94961E0E946C106B
:100CC00086EA9FE19093EC028093EB02C093C2010D
:100CD0001FE0C0E0D4E08091F7029091F8028532E5
:100CE000944FA8F02091D9023091DA02129FC001EE
:100CF000139F900D11249093DC028093DB021092DD
:100D0000DA021092D9021092F8021092F702809142
:100D1000D002882339F061E070E086ED92E0A6DB36
:100D20001092D00280919F0190919E01981748F4F3
:100D3000815080939F0188E59BDB80919F018F719B
:100D400097DB80919F0190919E01891748F48F5FF6
:100D500080939F0188E58CDB80919F018F7188DBF8
:100D60008091BC018A3020F48F5F8093BC0102C067
:100D70001092BC01E091BC018E2F90E08B30910568
:100D800008F03BC0FC01EA5AFF4F0C94012487E0B5
:100D900017DC9093EE028093ED027AC086E010DCBF
:100DA0009093CF028093CE0273C085E009DC9093CC
:100DB000E8028093E7026CC084E002DC9093D402E6
:100DC0008093D30265C081E0FBDB9093F0028093B7
:100DD000EF025EC080E0F4DB9093E4028093E302D4
:100DE00057C025DC9093CD028093CC0251C056DCD5
:100DF0009093D2028093D1024BC08AE0E1DB9093C2
:100E0000DE028093DD022091E1023091E202281798
:100E1000390720F49093E2028093E1022091E502E9
:100E20003091E6028217930720F49093E6028093B4
:100E3000E5028091BD018F5F8093BD018D3340F14C
:100E40006091E1027091E2028091E5029091E602E8
:100E5000860F971F96958795681B790B80E090E029
:100E60000E948C2424EF3DEF44E35FE30E94F224D0
:100E70000E9460247093E0026093DF02D093E60248
:100E8000C093E5021092E2021092E1021092BD01BD
:100E90000E94BF2388D10E94A311AED20E94131FCB
:100EA0000E94B5150E94B11816CF292F3327223082
:100EB000310559F02330310569F021303105E9F46D
:100EC00082E190E024E831E01CC083E490E021E47A
:100ED00031E017C099278130910549F028F0029739
:100EE00061F4E5E1F1E005C0EDE3F1E002C0E5E227
:100EF000F1E0849190E09F0104C080E090E020E068
:100F000030E0FA013183208308958EBD0DB407FED1
:100F1000FDCF8EB50895EF92FF920F931F93CF935D
:100F2000C82F8A3008F0C8E028E0C29F8001112451
:100F30008BE290E00B521109FC01E00FF11FE05130
:100F4000FE4F64917C012FEFE21AF20A8CD3C701A5
:100F50008333910589F7C550C53010F067E101C0B2
:100F600061E184E290E07FD3CF911F910F91FF90D8
:100F7000EF900895CF93DF9382E090E0FC01EB5374
:100F8000FE4F6491EC0121966ED3CE01AB97B1F781
:100F900087E390E0FC01E959FE4F6491EC01219652
:100FA00062D3CE01C036D105A9F788E0B4DFDF9166
:100FB000CF9108955E98806CA8DF80E0A6DF5E9AEE
:100FC0000895CF93C62F5E9880649FDF8C2F9DDF9E
:100FD0005E9ACF9108955E9898DF5E9A0895EF9299
:100FE000FF920F931F93CF93DF93EC01EE98569AE5
:100FF0005E9A8EE190E035D25E988EE190E031D23B
:101000005E9A8DE290E02DD280E3E5DF84E690E009
:1010100028D25E9880E479DF8E01075D1F4F7E0144
:101020008FEFE81AF80ACE0123D36FDFE701E0164D
:10103000F106A9F75E9A5E988EE767DF8BE290E093
:10104000EC01219615D361DFCE01E397C9F75E9AD3
:1010500083E3C1DF81E00AD2CDB7DEB7E6E00C94CE
:101060002F24A1E0B0E0E7E3F8E00C94172422E09D
:10107000298341E0BE016F5F7F4F0196AAD289812B
:101080004ADF82E090E0ABDF2196E2E00C9433246B
:10109000CF93EE9886E39FDFCFEF85E39CDFC150CF
:1010A0008077803229F08AE090E0DBD1C111F5CF62
:1010B000CF910895CF93CFEF84E38DDFC150807738
:1010C000803129F08AE090E0CCD1C111F5CFEE9AC1
:1010D000CF910895A2E0B0E0E0E7F8E00C94152489
:1010E0008C01FC0181818737E9F441E0BE016F5F2B
:1010F0007F4FC80102966DD2892BA1F041E0BE015D
:101100006E5F7F4FC801049664D2892B59F06A81C3
:10111000898157DF83E35FDFCDDF898156D28A8102
:1011200054D22CC041E0BE016E5F7F4FC8010196D2
:1011300050D2892B21F18A81893969F410E0812FFD
:1011400039DF43D2812F8770873009F4C7D11F5F01
:101150001033A9F714C02EDF182F83E490D18A81B1
:1011600034D28AE991E0ADD1812F2FD286E991E086
:10117000A8D140E262E0812F90E0B4D1AFD12296B5
:10118000E4E00C94312486E326DF1092F102109201
:101190003C02089582E090E022DF81E08093F1023A
:1011A00010923C0208958091BD04843009F069C01A
:1011B0008093E9008091BE0181112AC08091E800EE
:1011C00085FF26C08091F2009091F300892B31F0C9
:1011D0006091F10086E394E04FD3F4CF8091E80072
:1011E000982F9B7F9093E8008F778093E80081E0B1
:1011F0008093BE0183ED98E09093CB028093CA0266
:10120000E091EB02F091EC0281E009951092BE01B1
:1012100083E08093E9008091B503882391F1809168
:10122000E80085FF2EC0F8948091B503882369F00B
:101230008091F2009091F3008034910530F483EBBB
:1012400093E030D38093F100EFCF78942091F200B7
:101250003091F3008091E800982F9E7F9093E800F2
:101260008F778093E8002034310559F40E94902153
:101270008091E800982F9E7F9093E8008F7780936D
:10128000E800089542E061EC82E00E94422142E3DE
:1012900061E883E00E94422142E360E884E00E942A
:1012A00042211092A0011092A1011092A20110926D
:1012B000A30108958091BE049091BF04913229F05A
:1012C000923261F1903299F512C0813A81F58091A4
:1012D000E800877F8093E80067E070E080EA91E0B3
:1012E0000E94BB218091E800982F9B7F11C0813222
:1012F000F1F48091E800877F8093E80067E070E078
:1013000080EA91E00E9460228091E800982F9E7F01
:101310009093E8008F778093E8000895813239F444
:101320008091E800877F8093E8000C946C210895F9
:101330001F920F920FB60F9211248F939F93AF932A
:10134000BF938091F7029091F80201969093F80272
:101350008093F7028091BF018F5F8A3F18F48093DA
:10136000BF011AC01092BF018091F3029091F40264
:10137000A091F502B091F6020196A11DB11D8093D6
:10138000F3029093F402A093F502B093F6028091D9
:10139000F2028F5F8093F202BF91AF919F918F9184
:1013A0000F900FBE0F901F901895FC019FB7F894F7
:1013B0004091F3025091F4026091F5027091F602AF
:1013C00040835183628373839FBF0895A4E0B0E09C
:1013D000ECEEF9E00C941724CE010196E6DF8C8147
:1013E000F4D08B81F2D08A81F0D08981EED076D092
:1013F0002496E2E00C9433248091F3029091F4025D
:10140000A091F502B091F6022091C101281741F197
:101410008091F3029091F402A091F502B091F6024E
:101420008093C101A8958091F2028D37C8F0109287
:10143000F2028091F9029091FA02843823E0920737
:1014400028F401969093FA028093F9028091C001EA
:101450008F5F8C3319F08093C00108951092C00102
:101460000895880F991F0197F1F7089520ED37E04F
:10147000815020F0F9013197F1F7FACF0895CF9319
:101480009091BD04943081F49091C20190FF0CC002
:10149000C82F8091B50387FD86DE6C2F83EB93E028
:1014A000EBD1CA3009F47FDECF910895CF93DF935B
:1014B000EC018991882311F0E2DFFBCFDF91CF911E
:1014C0000895CF93DF93EC01FE018491882319F0F6
:1014D000D6DF2196F9CFDF91CF9108958DE0CFDF50
:1014E0008AE0CDCFA6E0B0E0E8E7FAE00C9415245E
:1014F000362F1E8225E0EAE0F0E0215001E010E006
:101500000C0F1D1F020F111DBF010E94D123805D12
:10151000D8018C93CB013150009769F02111EDCFA8
:101520000AC0222359F02150E1E0F0E0EC0FFD1F4A
:10153000E20FF11D4083315037FFF3CF81E090E09F
:101540008C0F9D1F820F911DB1DF2696E4E00C9455
:101550003124A5E0B0E0EFEAFAE00C941524FC0198
:101560001D8294E02E2F2F709150A92FB0E02A30C9
:1015700010F4205D01C0295C01E010E00C0F1D1F7C
:10158000A00FB11F2C9384E0F695E7958A95E1F7BB
:101590006150309739F7615067FD0BC0992349F0CE
:1015A0009150E1E0F0E0EC0FFD1FE90FF11D4083E9
:1015B000F2CF21E030E02C0F3D1F290F311DC90172
:1015C00075DF2596E4E00C94312440E362E090E07E
:1015D000C0CFDC01FB0130E020E09D919923B1F008
:1015E000913608F0905280ED890F8A3010F4982FD0
:1015F00005C08FEB890F863028F49753922B332345
:1016000089F006C0903249F39A3339F3CF0107C00D
:101610009F012F5F3F4F9083415049F4C901861BC2
:10162000970B0895292F2295207F31E0D6CFF9011D
:10163000D2CFFC0120E030E08AE09191992379F04B
:1016400040ED490F4A30C8F7829FA001839F500D9B
:1016500011249A0120533109290F311DEECFFB01CE
:101660003183208308950E94A626F999FECF08951C
:101670000C949E2608950F931F93CF93CFEFC60F20
:10168000CF3F61F08C010F5F1F4FF2DF9EDFCC2355
:1016900011F08AE3F4DEC150C801F2CFCF911F915F
:1016A0000F910895A2E0B0E0E8E5FBE00C9414246B
:1016B000FC0121812D3421F466E08AEF93E005C01E
:1016C000203529F460E18AED93E0D5DF28C01A8245
:1016D000198242E0BE016F5F7F4F01967ADF823050
:1016E00031F409811A8110270127102702C00981CE
:1016F00010E0C801BDDFF82E82E5C1DE40E364E002
:10170000C80127DF89E592E0DCDE8F2D5EDF85E50D
:1017100092E0D7DE40E262E08F2D90E0E3DEDEDE95
:101720002296E5E00C943024A6E0B0E0EAE9FBE084
:101730000C9411248C0143E0BE016F5F7F4F019632
:1017400048DF823070F1823019F4C980D12C05C095
:10175000C980DA80DC24CD24DC247C01FF24FE0156
:10176000EE0DFF1D6081C6017EDFEE0CFF1C8FEFCA
:10177000E81AF80A0E0D1F1DF8018081882389F0F0
:1017800041E0BE016F5F7F4FC80123DF892B49F025
:10179000EFEFCE1ADE0A6981C60165DF0E5F1F4FCB
:1017A000EBCF2696E8E00C942D24A1E0B0E0EBED21
:1017B000FBE00C9417241982009731F041E0BE0140
:1017C0006F5F7F4F019605DF89818F3F09F4FFCF5F
:1017D000882321F061E083E390E045DF0E94EE2260
:1017E00010926E00F89498E088E10FB6F894A895EE
:1017F000809360000FBE90936000FFCFCF93DF9384
:10180000EC0161E080E090E02EDF63E481E090E0B5
:101810002ADFB0DB60E080E690E025DF60E081E673
:1018200090E021DF60E083E390E01DDF62E084E38D
:1018300090E019DF8981883719F080E090E0B5DF0A
:10184000DF91CF91089580E090E012DF813029F49C
:1018500081E090E00DDF833419F080E090E0CECF9E
:101860000895FC018181883419F48EE492E002C06D
:1018700080E492E026DE32CEFC019FB7F8948281AC
:1018800087FD0EC08F5F8283208181E0820F80837D
:10189000DF01A20FB11D13966C93803809F41082FA
:1018A0009FBF0895FC012FB7F8948281811102C077
:1018B0002FBF08959FEF980F9283918181E0890F48
:1018C0008183DF01A90FB11D13969C91803809F423
:1018D00011822FBF892F0895FA019081882369F022
:1018E000DB01A90FB11DE1E0F0E0022E01C0EE0F17
:1018F0000A94EAF78C91E82BEC93222319F08FEFEE
:10190000820F0BC081E0890F8C3010F4FA018083C4
:10191000FB01E80FF11D108287E090E00895CF935E
:10192000C82F8F9A882319F08091C50102C0809139
:10193000C70120E1829FC001112493DD8F98CC2341
:1019400019F08091C40102C08091C60120E1829FFC
:10195000C001112486DDCF910895A9E0B0E0E3EB4A
:10196000FCE00C9407244C01B62E422EDE2CE42E13
:10197000F12C97012E5F3F4F8C2D8A0D029F800D19
:101980001124082E000C990B2091F9023091FA02D3
:101990002817390720F48DE592E093DD8AC0281BD3
:1019A000390B3093FA022093F9028091F1028111F0
:1019B00001C0F0DB6DDB80E1C89E900111243A8309
:1019C000298320E1A29EF0011124FC83EB838B2D5F
:1019D00090E09E838D8366246394712C512CC110FA
:1019E00002C0AA2041F08F9A89819A813ADD8F98AE
:1019F0008B819C8136DD1F82EF818E2FEE0F990B3C
:101A00002D813E818217930734F480E088DF9F8127
:101A10009F5F9F83F1CFBB2011F081E080DF10E05A
:101A2000812F012E000C990B998788878E159F05B1
:101A3000D4F487E0282E312C88859985880D991D4E
:101A400099878887C301022C01C0880F0A94EAF79E
:101A5000E885F9859081892362DFF1E02F1A31084A
:101A600088F71F5FDDCF17E0880D991D998788875C
:101A7000812F012E000C990B481659066CF4C301F6
:101A8000012E01C0880F0A94EAF7E885F985908154
:101A9000892345DF1150ECCF8D2DE8DC015009F092
:101AA0009ECF8091FC02882311F004DB02C086E304
:101AB00092DA2996E2E10C942324ADE0B0E0E3E66B
:101AC000FDE00C940C247C01D62E842F022F5701AC
:101AD000A60EB11C462FB70132D3F501808311E069
:101AE0001D0D1D86198227E0712CCC24C394D12CA6
:101AF00097E0A92EB12C4701870C911C711658F55F
:101B0000C6010A2C01C0880F0A94EAF7F4019081FB
:101B1000AE01435F5F4FBE016F5F7F4F8923DCDE05
:101B2000282FF1E0AF1AB10848F7F4018081082EA0
:101B300082958025082E8695869580258F5F8695CF
:101B40008170AE01435F5F4FBE016F5F7F4FC4DEA8
:101B5000282F7394CDCF222311F0215004C08D85FE
:101B60008F5F8D8727E089E18093C6018093C7014D
:101B700085E28093C4018093C501A12CC12C8AE029
:101B8000E82E4D856CE0CE010196E7DE2D96EDE066
:101B90000C942824ACE0B0E0E0EDFDE00C941524BA
:101BA000162F042F4BE0BE016F5F7F4F019611DDB2
:101BB000202F412F682FCE0101967FDF2C96E4E085
:101BC0000C94312443E066E0E5CFAF92CF92EF92E0
:101BD0000F93CF93DF93CDB7DEB760970FB6F8942E
:101BE000DEBF0FBECDBF40E1BE016F5F7F4F0196EC
:101BF000F0DC69814A810B818C818093C7018D81E2
:101C00008093C6018E818093C5018F818093C4012A
:101C1000E02EE2948FE0E8220F70242F2F7042957F
:101C20004F70A12CC12CCE01089697DE60960FB69E
:101C3000F894DEBF0FBECDBFDF91CF910F91EF9033
:101C4000CF90AF900895A9E1B0E0E9E2FEE00C94F6
:101C50000D244BE08E010F5F1F4FB8010196B9DCD8
:101C6000F82E89E0F81256C089E18093C60180936E
:101C7000C7018093C50182E38093C40169E0C80174
:101C800068D2F801EF0DF11D8083198E1D86680161
:101C900027E088248394912CE12CF12CBC2CB01AE1
:101CA000F9E0FB1528F1C4010E2C01C0880F0A943D
:101CB000EAF7F6019081AE01475E5F4FBE01635FB8
:101CC0007F4F892309DE282FFFEFEF1AFF0A88E0F4
:101CD000E816F10429F7AE01475E5F4FBE01635F6E
:101CE0007F4F81E0F9DD282FEFEFCE1ADE0AD4CF47
:101CF000222311F0215004C0898D8F5F898F27E046
:101D0000A12CC12C8AE0E82E03E0498D6CE0CE01C5
:101D10000D9623DE6996ECE00C942924A9E1B0E04D
:101D2000E4E9FEE00C940E244BE09E012F5F3F4F50
:101D30007901B90101964DDC182F85E38093C70125
:101D400096E19093C6019093C5018093C401612FE1
:101D5000C7010BD2F701E10FF11D80839924939401
:101D6000910E198E1D86670127E0AA24A394B12C39
:101D70008C2D8E19891508F044C000E010E0C501D3
:101D8000002E01C0880F0A94EAF7F6019081AE0197
:101D9000475E5F4FBE01635F7F4F89239DDD282F24
:101DA0000F5F1F4F0430110551F7AE01475E5F4FC3
:101DB000BE01635F7F4F81E08FDD282FC501002EBC
:101DC00001C0880F0A94EAF7F6019081AE01475EE0
:101DD0005F4FBE01635F7F4F89237EDD282F0F5F3A
:101DE0001F4F0830110551F7AE01475E5F4FBE012E
:101DF000635F7F4F81E070DD282FFFEFCF1ADF0A8E
:101E0000B7CFA12CC12C8AE0E82E03E0498D6AE00F
:101E1000CE010D96A2DD6996EBE00C942A24AF92D8
:101E2000CF92EF920F93CF93DF93CDB7DEB72C977E
:101E30000FB6F894DEBF0FBECDBF4BE0BE016F5FA3
:101E40007F4F0296C6DB8530C1F48EE38093C701D5
:101E50008CE18093C60181E28093C5018AE380937F
:101E6000C40185E2A82E9AEFC92EE12C05E024E0FA
:101E700044E068E0CE01019670DD2C960FB6F89430
:101E8000DEBF0FBECDBFDF91CF910F91EF90CF900E
:101E9000AF900895A0E0B0E0E0E5FFE00C940D24E1
:101EA000DC011092DB011092E8011196DC90119791
:101EB000DD0CDD0CDD0C13968C911397D81A8D2D4B
:101EC00097E0B92EBD0C1092DC0128E0D22ED80E7E
:101ED00071E090E040E087E057E0C12C37E0E32E6E
:101EE000F12C01E010E07D1509F47DC0FD01EC0D41
:101EF000F11D248130E0052E02C0359527950A9406
:101F0000E2F721703327552311F0515002C0C394DA
:101F100057E06B3479F4833009F049C0411108C0AF
:101F2000232B09F05DC01092DB019093E80170C093
:101F300040E03FC08F3F39F56634B1F4E92FF0E05F
:101F4000E452FE4FE0810E2EE295E0250E2EE6953E
:101F5000E695E025EF5FE695E170CE2F812CD82D38
:101F60002C173D0741F004C0653429F4232B19F4E4
:101F70004093DB01DACF9F5FE92FF0E0E452FE4FA0
:101F8000108287E02EC0232B49F1663469F4E92FD3
:101F9000F0E0E452FE4FA0809801082E01C0220F0D
:101FA0000A94EAF72A2919C0653429F017C08F3F2F
:101FB000E9F2232B99F0E92FF0E0E452FE4F97016C
:101FC000281B310987FD3395480102C0880C991CF4
:101FD0002A95E2F794013081232B2083815001C0A0
:101FE00041E07F5F80CF4093DB019093E801B7161B
:101FF00078F4653431F48F3F21F49F5F9093E801CA
:1020000002C04111FACF81E09091E801911101C025
:1020100080E0CDB7DEB7ECE00C94292410926F007D
:10202000E091EB0184E1E89FF0011124E451FE4FBF
:1020300010820895FC0181818C3008F0EFCF662377
:1020400089F0DF01A80FB11D21E030E0038002C05C
:10205000220F331F0A94E2F714969C911497292BB0
:1020600014962C939381992319F09150938308959A
:1020700097E093838F5F8183E80FF11D14820895A9
:10208000DC01362F11962C911197E22FF0E050E0F1
:102090009C91BF01641B750B655F7F4F67317105B4
:1020A000C8F4892F90E0632F70E09C01261B370B4A
:1020B000255F3F4F2731310568F49F01280F391FF5
:1020C000640F751F261B370B255F3F4F81E02731BB
:1020D000310508F080E00895879A8F986E98EAE6B7
:1020E000F0E080818061808382EC91E09093FA023D
:1020F0008093F902ECEEF1E0148A10A614AE10926F
:10210000F10208958091FC02882319F043D80C94C1
:102110005A0839C8FC01218121110BC08091FC02B1
:1021200054DA40E265E08091F9029091FA02DAD93E
:10213000D5C941E06CEF72E001964BDAE3CF44235E
:1021400039F04150FB01E40FF11D9081890FF7CF69
:1021500008959C0180E0662339F06150F901E60F93
:10216000F11D90818927F7CF0895FC017091DB0163
:1021700040E095E020E0662399F06150DF01A60F72
:10218000B11D3C91532F52955F702527950F7723F2
:1021900011F0442319F03F702327930F4F5FEBCFCB
:1021A000920F30E1939FC0011124822B0895FC010E
:1021B00082819381A081B181A80FB11D2C9130E063
:1021C000092E02C0359527950A94E2F721703FEF5A
:1021D000390F3383911104C08F5F828387E083833B
:1021E000822F0895A0E0B0E0E8EFF0E10C940E2417
:1021F0008C01942EC62ED12CC0E0D0E0B12CAA24A4
:10220000A394760121E0E21AF108CC15DD05C9F0AE
:10221000C801CDDF882399F0992051F0C7018C1BAC
:102220009D0B2A2D01C0220F8A95EAF7822F06C046
:102230008A2D0C2E01C0880F0A94EAF7B82A21963D
:10224000E4CF8B2DCDB7DEB7EBE00C942A24A4E0CD
:10225000B0E0EDE2F1E10C940E241B8227E02C8328
:102260009C012C5F3F4F3A8329831092E801FC01C7
:102270002181338187E090E0831B9109F8E02F9F53
:10228000800D911D1124853491050CF44FC0912CC3
:102290000091E801063070F5E02EF12C40E068E096
:1022A000CE0101969FDF9701A90144525E4F7A014A
:1022B000FA018083182F012E12951025012E1695F4
:1022C00016951025CE01019672DF1F5F11FBAA241F
:1022D000A0F8B12C90E0A816B90641F5CE01019600
:1022E00066DF811123C0F701808198260F5F00937C
:1022F000E801CECF40E068E0CE01019673DF082F01
:10230000182F012E12951025012E169516951025C1
:10231000CE0101964CDF1F5F11FBCC24C0F8D12CFD
:1023200090E0C816D90611F481E0901280E024965E
:10233000EBE00C942A248091FB0280FD03C08460B2
:102340008093FB020895A1E0B0E0E9EAF1E10C948A
:102350000D2419828091C801882391F18091FC029B
:1023600087FF16C084E30E94DA078058803458F053
:10237000803C58F490E08055910923E0959587952D
:102380002A95E1F703C080E001C08FE08F5977D82C
:102390008091FC0283FF12C082E771D88091FC0219
:1023A00084FF03C08091C9016AD886E668D880910D
:1023B000FC0284FF03C08091C80161D81092C8015B
:1023C0008091E901882309F406C20091EA0124E121
:1023D000029F8001112404511E4F8981811139C04F
:1023E00066E4C80157DD8823A1F1F090E801FA9472
:1023F000F092E8014F2D6CED71E086E0A0DEEF2D4C
:10240000F0E0E452FE4FE0808E1105C093E09F158E
:1024100010F486E41BC0282F30E02F5F3F4F4E2D75
:1024200050E02417350739F4A3E0AF1520F496E403
:10243000998380830EC04F2D6CED71E08CE07FDEC0
:10244000E81206C0B3E0BF1518F484E5898301C023
:102450001982898181111FC065E4C8011BDD8823B1
:1024600089F08091E80181508093E801893051F42E
:1024700069E08CED91E06DDE9091E501891302C079
:1024800085E489838981811106C0C801E0DE882343
:1024900011F088E48983898181113AC0F801438968
:1024A0006091C901C8014296EBDD682FC801C2DD09
:1024B0006BE4C801EFDC8823C1F0E091E801FF2460
:1024C000FA94FE0EF092E8016F2D8CED91E04DDE56
:1024D000EF2DF0E09091DB01E91BF109E452FE4F92
:1024E0009081891302C08BE489838981811110C096
:1024F000D80113968C911397873021F08F5F139634
:102500008C9320C0F80113828181815081831AC08D
:1025100079814091FC0240FF15C08091FB028E7FC3
:102520008B7F8093FB02942F927041FF9BC0743588
:1025300009F4FDC0B801CE010196FDDE8091FB02D9
:1025400082FD15C18091FC0282FF7AC080E70E9463
:102550003F0AF801808140E262E090E00E94720A46
:10256000D80150968C9140E265E0B0E18B9FC001AC
:1025700011240E94720AF801818940E265E0F0E1CD
:102580008F9FC00111240E94720AD80152968C912B
:1025900040E265E0B0E18B9FC00111240E94720A05
:1025A000F801838940E265E0F0E18F9FC0011124CA
:1025B0000E94720AD80112968C9140E263E090E08A
:1025C0000E94720AF801818140E263E090E00E947B
:1025D000720AD80113969C9140E262E027E030E055
:1025E000F901E91BF109CF010E94720A80E20E9401
:1025F0003F0A8091FC0285FF08C084E30E94DA074D
:102600000E94E50A80E20E943F0AD80113968C914D
:102610001397873031F011968C9111978F5F119637
:102620008C93F12CF8018181F81640F4F801EF0D3C
:10263000F11D84810E94E50AF394F4CF0E946E0A92
:10264000D8011C928091E90181508093E901809129
:10265000EA018F5F843019F08093EA01BCC01092C8
:10266000EA01B9C05091DA016091E80156133EC009
:1026700080E08517C0F4282F30E0E1E0E80FD901B1
:10268000A253BE4F24523E4FFC91D9012C91F21718
:1026900041F08093DA012091FB022D7F2093FB0211
:1026A00004C08E2FE6CF8093DA0158131FC0C0906C
:1026B000F302D090F402E090F502F090F6028090E0
:1026C000CA019090CB01A090CC01B090CD01C81868
:1026D000D908EA08FB08B6E2CB16D104E104F104FC
:1026E00028F48091FB0281608093FB02961760F4CE
:1026F000292F30E0F901E253FE4FD901A452BE4F19
:102700008C9180839F5FF2CF9093DA018091F302E6
:102710009091F402A091F502B091F6028093CA0163
:102720009093CB01A093CC01B093CD0100CF46FD97
:1027300001CF8091E801853008F4FCCE8091DE0164
:102740008B3479F0893669F09DEA980F923048F021
:102750008D57823030F08091DF018077803709F02B
:10276000E9CE8091FB0281608093FB02E3CE8981F8
:102770000E943F0A8091DB01882329F08091E801C3
:1027800081508093E801F12CE091E801FE1648F4B5
:10279000EF2DF0E0E452FE4F80810E94E50AF394B1
:1027A000F3CF8091DB01882351F0F0E0E452FE4F3B
:1027B00080818F7040E361E090E00E94A90A8091DF
:1027C000FC0285FF05C084E30E94DA070E94E50A47
:1027D0000E946E0AB7CE2196ECE00C9429241F9239
:1027E0000F920FB60F9211242F933F934F935F9345
:1027F0006F937F938F939F93AF93BF93EF93FF93C9
:1028000010926F008091FC0283FF03C08EE20E9451
:102810003F0A8091EB0194E1899FF0011124E4517A
:10282000FE4F9081933018F09181923010F4F6DBD6
:1028300018C09091E901933049F48091FC0282FF25
:10284000F6CF84E692E00E94610AF1CF9F5F9093F9
:10285000E9018F5F843019F08093EB0102C0109280
:10286000EB01FF91EF91BF91AF919F918F917F917C
:102870006F915F914F913F912F910F900FBE0F90ED
:102880001F9018951F920F920FB60F921124FF926E
:102890000F931F932F933F934F935F936F937F9368
:1028A0008F939F93AF93BF93CF93DF93EF93FF9358
:1028B0008091B203882321F082E08093B203EDC0BF
:1028C0000091840010918500E4E016950795EA9543
:1028D000E1F7C091EB0184E1C89FE0011124C451EC
:1028E000DE4F8881843039F40E3208F4D6C00F34BC
:1028F00010F094DBD2C066990CC0843039F461E0EA
:10290000CE0198DB10928500109284000093C901DB
:10291000C4C08091C901081B0093C80110928500B2
:10292000109284008881843021F460E0CE0182DB43
:10293000B4C082E086BBF8800091C901F1100FC0DD
:10294000053608F0AAC08091C801853608F0A5C0F8
:10295000088B898B81E08A8382E088839EC01091F6
:10296000C80182E0412F602FF81248C0CE01409686
:1029700087DB2A818823F9F0888990E0AC01440F35
:10298000551F840F951F800F911D959587959595DF
:102990008795888B898990E0AC01440F551F840F7F
:1029A000951F810F911D9595879595958795898B95
:1029B0002F5F2A8372C02430F8F080EA9FE0909362
:1029C0008900809388008A818C3050F02889898919
:1029D00090E0820F911D8536910514F084E001C0CE
:1029E00083E088830A8B1B8B198287E08B831C8290
:1029F00082E080936F0051C01882A2CFCE01429630
:102A00003FDB882301F161E0CE0114DB8A8990E08D
:102A10009C01220F331F820F931F800F911D9595EC
:102A20008795959587958A8B8B8990E09C01220FDD
:102A3000331F820F931F810F911D95958795959553
:102A400087958B8B2AC0412F602FCE01409618DBD3
:102A5000882301F160E0CE01EDDA888990E09C01E5
:102A6000220F331F820F931F800F911D959587951D
:102A700095958795888B898990E09C01220F331F5B
:102A8000820F931F810F911D959587959595879539
:102A9000898B03C087E0F8122CCFFF91EF91DF9173
:102AA000CF91BF91AF919F918F917F916F915F91E6
:102AB0004F913F912F911F910F91FF900F900FBE5B
:102AC0000F901F9018950F931F93CF93DF93EE985D
:102AD000569A5E9A8EE190E00E94310A5E988EE1ED
:102AE00090E00E94310A5E9A8DE290E00E94310AE5
:102AF00080E30E94EB0784E690E00E94310ACBE875
:102B0000D2E0FE0131966491FE0184910E94E107BA
:102B10002296F2E0CD3BDF07A1F780913D028111C3
:102B200007C083E30E94EB0784E00E94360A10C0CE
:102B3000C5E7D2E00BE812E0FE0131966491FE0198
:102B400084910E94E10722960C171D07A9F7E9CF8F
:102B500084E30E94EB0785E30E94DA078D30C1F71A
:102B6000DF91CF911F910F910895A2E3B0E0EBEBBD
:102B7000F5E10C94152480913C02882309F493C05C
:102B8000669B7EC08FE30E94DA078F77898382334A
:102B900008F07DC05E988FEF0E94850710E0898164
:102BA000181760F480E00E948507E2E0F0E0EC0F87
:102BB000FD1FE10FF11D80831F5FF1CF80E00E94B8
:102BC0008507082F80E00E9485075E9A84E30E94B3
:102BD000EB0785E30E94DA078D30C1F78A8196E71B
:102BE00098279A8392E02981E92FF0E0921768F400
:102BF00021E030E02C0F3D1FE20FF31F20818452B3
:102C0000822780839F5F822FEECF81E090E08C0F40
:102C10009D1FE80FF91F90818B8189278083809108
:102C2000FC0284FF12C081E60E943F0A10E0898105
:102C3000811730F1E1E0F0E0EC0FFD1FE10FF11D35
:102C400080810E943F0A1F5FF2CF81E40E943F0A09
:102C500010E08981811758F0E1E0F0E0EC0FFD1FF2
:102C6000E10FF11D80810E94E50A1F5FF2CF809184
:102C7000FC0285FF03C0802F0E94E50A0E946E0AB5
:102C800085E30E94DA07813029F0813161F48AE31B
:102C90000E94EB0786E30E94EB078DE30E94EB079F
:102CA00084E30E94EB07E296E4E00C943124AAE36B
:102CB000B0E0EDE5F6E10C940D2441E38E010F5FE9
:102CC0001F4FB80101960E94E90A7C019C0133273D
:102CD00021503109898190E02817390709F0A2C0F5
:102CE00080913C02811104C0EEDE83E00E94360A2E
:102CF000DB809A8186E789278A8322E03981822FC7
:102D000090E0F801E80FF91F231750F4DE01A80F37
:102D1000B91F8C9184529081892780832F5FEECFD9
:102D200080818D258083CE01C7960E94D50985E3D9
:102D30000E94EB0785E30E94DA07833181F1CE011F
:102D4000C3960E94D5094BA95CA96DA97EA98FA93C
:102D500098ADA9ADBAAD84179507A607B70760F47B
:102D60004A015B01881A990AAA0ABB0A2DEB82164E
:102D70009104A104B10470F4481759076A077B074E
:102D800070F484549F4FAF4FBF4F84179507A60729
:102D9000B70728F48BE692E00E94610A27C085E31A
:102DA0000E94DA07833119F6D4FE08C088E70E9432
:102DB000360A88E70E94360A88E701C08AE00E9446
:102DC000360A5E988FE70E94850768018C2D801B6C
:102DD0008E1530F4F60181916F010E948507F6CFC0
:102DE0005E9A85E30E94DA078331D9F385E30E9476
:102DF000DA07863149F48BE30E94EB0786E30E94F1
:102E0000EB078DE30E94EB0780913C02882349F099
:102E100084E30E94EB0785E30E94DA078D30C1F757
:102E200001C070D9EA96ECE00C942924FC01918150
:102E3000923731F0923559F481E080933D0202C01F
:102E400010923D0240DE81E080933C02089593376A
:102E500019F4CF0101962BCF10923C0208950E94E5
:102E60005A08EE9808950F931F93CF93DF93569AC5
:102E70005E9A8EE190E00E94310A5E988EE190E0C9
:102E80000E94310A5E9A8DE290E00E94310A80E34E
:102E90000E94EB0784E690E00E94310A8091A6032D
:102EA0008933D9F4C1E2D3E003E513E0FE013196A2
:102EB0006491FE0184910E94E10722960C171D0780
:102EC000A9F783E30E94EB0784E00E94360AC7DF7C
:102ED000DF91CF911F910F910895843379F4CFEE54
:102EE000D2E0FE0131966491FE0184910E94E107D7
:102EF0002296F3E0C132DF07A1F7E3CF813309F770
:102F0000CDEBD2E0FE0131966491FE0184910E94E6
:102F1000E1072296F2E0CF3EDF07A1F7D2CFFC0116
:102F200090818091AB03981317C091818091AC037D
:102F3000981312C092818091AD0398130DC09381B4
:102F40008091AE03981308C090858091AF039817C5
:102F500029F081E09F3F19F080E0089581E0089515
:102F60009C018FEF662339F06150F901E60FF11DE6
:102F700090818927F7CF0895DC012FE03DE170E0D3
:102F8000AD01481B590B461757070CF54D91E32F20
:102F9000FF27E427AF01529542954F7045275F7098
:102FA0004527E427F527322F2227A9014E275F273F
:102FB0009F01322F22273295307F2427352745E085
:102FC000EE0FFF1F4A95E1F72E273F27D9CFC90102
:102FD0000895A0E0B0E0EFEEF7E10C9411248C012D
:102FE000C62F8091A603893339F464E182E10E94FF
:102FF000E1076C2F660F6D5E86E00E94E1070E947C
:1030000048085E988FE70E9485078091A603893360
:1030100031F07801C8018C0F911DEC0150C0DFE048
:1030200086E60E948507D150D9F78AEA0E94850773
:1030300085E50E94850778016801CC0ED11CEC144F
:10304000FD04B1F1F701C1917F01C7FD02C090E419
:1030500001C090E8C6FD02C080E101C080E2890F96
:10306000C5FD02C094E001C098E0890FC4FD02C014
:1030700091E001C092E0890F0E948507C3FD02C064
:1030800090E401C090E8C2FD02C080E101C080E28E
:10309000890FC1FD02C094E001C098E0890FC0FD16
:1030A00002C091E001C092E0890F0E948507C7CF5E
:1030B00080E00E94850780E00E9485070AC0CE1547
:1030C000DF0539F0F70181917F0180950E94850726
:1030D000F6CF5E9A85E30E94DA078331D9F36FEF6A
:1030E00086E00E94E1078091A603893321F46EE116
:1030F00082E10E94E107B3DEF801858186FF2CC0E2
:103100008091F3029091F402A091F502B091F60241
:103110000696A11DB11D8093A7039093A803A093C9
:10312000A903B093AA0380913E028F5F80933E0271
:10313000823060F08AE70E943F0A82E70E943F0ADD
:1031400080913E020E94E50A0E946E0A80913E0232
:10315000833010F010923E02CDB7DEB7E8E00C9459
:103160002D24A8EAB0E0E7EBF8E10C940D2480915F
:103170003F02882309F41EC180913E028823D9F0C2
:103180004091F3025091F4026091F5027091F602C1
:103190008091A7039091A803A091A903B091AA03DD
:1031A00084179507A607B70730F46091A5038DEF44
:1031B00092E00FDFFFC0669BFDC05E988FEF0E941C
:1031C00085078E010F5F1F4F6E0189E0C80ED11C6D
:1031D000780180E00E948507F70180839091A60323
:1031E000993311F080958083FFEFEF1AFF0AEC14FA
:1031F000FD0479F75E9AF88487EF8F0D803A10F01E
:1032000032DED8C06F2D86E00E94E1078091A603D0
:10321000813331F0843341F47CEDA72EB12C08C00A
:103220006AE5A62EB12C04C058E9A52E53E0B52EB0
:1032300030EAC32E48E0E42E8F2C912CC5010E9469
:10324000310A8BE30E94DA07D82E882329F190E017
:103250008E0D911D881699069CF25E988FEF0E9444
:103260008507DE0CED1471F080E00E9485079091D7
:10327000A603993309F08095F801EE0DF11D8083C6
:10328000E394F0CF5E9AEF1438F08091A603CF2C30
:10329000D12C813301F504C0CA94C110CFCFF5CF32
:1032A000EFEFFFEFEC0FFD1FEC0DFD1D808190E0B7
:1032B000982F8827FE01EC0DFD1D20816C01C20EA8
:1032C000D11C6EEF6F0DC80157DEEE24E394C816D3
:1032D000D90661F40CC06FEF6F0DC80141DEFE012D
:1032E000EC0DFD1DEE24E39490819813E12C809168
:1032F0003F02823789F5C80112DE882391F0EE2063
:1033000089F08AE70E943F0A6801F60181916F0106
:103310000E94E50A8C2D801B8F15B8F30E946E0A5F
:1033200001C0E12C80913F02823781F4EE2071F0E0
:103330008E81982F9370933029F490913E029111D1
:1033400010923E0286FF02C087FF09C06FEF86E041
:103350000E94E10784DD2EC0EE20C1F3D2CF8AE0C7
:103360000E94360A8D8189878091AF038D8383E027
:103370008E838091A603813349F48BE0888769E0CE
:10338000C801FADD9A878B876BE007C08AE08887DF
:1033900069E0C801E5DD8A876AE0C8011ADE8AE7CC
:1033A0000E943F0A81E60E943F0A89850E94E50A41
:1033B0000E946E0AC855DF4FECE00C942924FC01F2
:1033C0002181223711F02D3651F4FC0182818111C7
:1033D00001C084E38093A60320933F0244CD2337AA
:1033E00071F410923E0248EA6DEF72E002960E947C
:1033F000E90A8093A503682F8DEF92E0EACD293684
:1034000071F5FC012281222331F045E06BEA73E083
:1034100002960C94E90A80913F020E943F0A809133
:10342000A6030E943F0A80E20E943F0A8091AB03FC
:103430000E94E50A8091AC030E94E50A8091AD03E9
:103440000E94E50A8091AE030E94E50A80E20E9494
:103450003F0A8091AF030E94E50A0C946E0A109215
:103460003F020895CF93DF93EE98569A5E9A8EE1CD
:1034700090E00E94310A5E988EE190E00E94310A4D
:103480005E9A8DE290E00E94310A80E30E94EB0791
:1034900084E690E00E94310A5E9880E40E948507ED
:1034A000C3E5D3E0FE0184910E9485072196F3E0F5
:1034B000C036DF07B9F78091A7010E948507809188
:1034C000A8010E9485078091A9010E948507C0E09C
:1034D000D0E0FE01ED59FC4F84910E9485072196B2
:1034E000C931D105B1F75E9A5E988EE70E948507D3
:1034F0008BE290E0EC0121960E94380B0E94850738
:10350000CE01E397B9F75E9A83E30E94EB0781E06F
:103510000E94360A81E08093F102DF91CF910895F5
:10352000A0E0B0E0E6E9FAE10C940F24EC01898117
:10353000843769F46EEA71E0CE0102960E94190B9D
:1035400040E260E08091AE019091AF0112C08337FC
:1035500009F084C18A81823789F46AEA71E0CE0178
:1035600003960E94190B40E260E08091AA019091BD
:10357000AB010E94720A0E946E0AD2C1809142027F
:1035800081110DC080913C02882329F081E0809355
:10359000410210923C0266DF83E00E94360A86E315
:1035A0000E94EB078AE30E94EB078BE30E94EB0784
:1035B0000E944808FE0101900020E9F7EC1BFEEF95
:1035C000FF2EFE0E10E0AAE0BA2EB5E0EB2E88E248
:1035D000A82E2091AA013091AB01812F012E000C61
:1035E000990B8217930708F005C131E2F31214C05A
:1035F0008F9A8091AE019091AF010E94310A8F980D
:103600008091AC019091AD01FC01BE9EC001BF9EB6
:10361000900D11240E94310A6E01F2E0CF0ED11CF0
:1036200001E00F150CF0BCC0F60181916F018033F1
:1036300009F048C0F1E28F9AFF1220C08091AC01DE
:103640009091AD010E94310A8F988091AC019091C8
:10365000AD010E94310A8F9A8091AC019091AD0129
:103660000E94310A8F988091AC019091AD019C012C
:10367000E29EC001E39E900D11248EC08091AE01A8
:103680009091AF010E94310A8F988091AE01909184
:10369000AF019C01220F331F820F931F0E94310A3A
:1036A0008F9A8091AE019091AF010E94310A8F985C
:1036B0008091AE019091AF019C01220F331F820FC8
:1036C000931F6AC0813339F531E28F9AF31212C029
:1036D0008091AC019091AD010E94310A8F98809148
:1036E000AC019091AD01FC01EE9EC001EF9E900DEA
:1036F000112420C08091AE019091AF019C01220F56
:10370000331F820F931F0E94310A8F988091AE0160
:103710009091AF012EC0F1E28F9AFF121AC08091F2
:10372000AC019091AD010E94310A8F988091AC015B
:103730009091AD010E94310A8F9A8091AC019091D5
:10374000AD010E94310A8F988091AC019091AD013A
:1037500023C08091AE019091AF010E94310A8F98F1
:103760008091AE019091AF019C01220F331F820F17
:10377000931F0E94310A8F9A8091AE019091AF0100
:103780009C01220F331F820F931F0E94310A8F98D2
:103790008091AE019091AF010E94310A0F5F41CF3D
:1037A00021E28F9AF21214C08091AC019091AD0188
:1037B0000E94310A8F988091AC019091AD01FC017B
:1037C000AE9EC001AF9E900D11240E94310A10C020
:1037D0008091AE019091AF010E94310A8F980FE164
:1037E0008091AE019091AF010E94310A0150C1F762
:1037F0001F5FEFCE80914202882341F08091FC024E
:1038000081110EC086E30E94EB070FC08091410238
:10381000882349F01092410256D981E080933C02FE
:103820000E945A0802C00E94821089E60E943F0A44
:1038300083E70E943F0A11E01F150CF09CCEFE01A9
:10384000E10FF11D17FDFA958181803319F0813365
:1038500009F086E40E943F0A1F5FEECF823771F4C1
:1038600080913C02882329F081E0809341021092EC
:103870003C02F8DD81E08093420252C0863651F569
:103880008A81803351F480E18093A70180EB80939B
:10389000A80181E78093A90107C043E067EA71E0CE
:1038A000CE0102960E94E90A89E60E943F0A86E656
:1038B0000E943F0A8AE30E943F0A8091A7010E946A
:1038C000E50A8091A8010E94E50A8091A9010E9461
:1038D000E50A51CE8837E1F480914102882339F01E
:1038E00010924102F0D881E080933C0208C082E04F
:1038F00090E00E94EF078091FC02882319F00E945B
:103900005A0803C086E30E94EB071092420208C0E7
:10391000833631F46EEA71E0CE0101960E94190BF4
:10392000CDB7DEB7EAE097C7A1E0B0E0E9E9FCE196
:1039300070C77C01FC018181833709F08EC1198237
:1039400087E090E00E947D258C0141E0BE016F5F21
:103950007F4FC70102960E94E90A8981F80180839E
:1039600041E0BE016F5F7F4FC70104960E94E90AE4
:103970008981807FD82EF801818341E0BE016F5F8D
:103980007F4FC70106960E94E90A8981F801828368
:1039900041E0BE016F5F7F4FC70108960E94E90AB0
:1039A0008981F801838341E0BE016F5F7F4FC701CA
:1039B0000A960E94E90A8981F801868341E0BE01E6
:1039C0006F5F7F4FC7010C960E94E90A8981F80159
:1039D000858341E0BE016F5F7F4FC7010E960E9455
:1039E000E90A8981F80184833801F7E06F0E711CC0
:1039F000F80180E09191292F22952F709227892735
:103A0000E615F705B9F78F708D29F801818387E0F6
:103A100090E00E947D257C0187E0F801D7010190AC
:103A20000D928A95E1F798012A5F3F4FF801DF0177
:103A3000319611969C9111978C9189278083E2177A
:103A4000F307A9F780914502811157C080913C028C
:103A5000882329F081E08093440210923C02EE9882
:103A6000569A5E9A8EE190E00E94310A5E988EE14D
:103A700090E00E94310A5E9A8DE290E00E94310A45
:103A800080E30E94EB0784E690E00E94310A5E9892
:103A900080E40E948507ECE7CE2EE3E0DE2EF5EA17
:103AA000AF2EF3E0BF2EF60184910E948507FFEF51
:103AB000CF1ADF0AAC14BD04B1F75E9A5E988EE7A8
:103AC0000E9485078BE290E06C012FEFC21AD20AA8
:103AD0000E94380B0E948507C60183339105A1F728
:103AE0005E9A83E30E94EB0781E00E94360A81E040
:103AF0008093F10283E00E94360A86E30E94EB077E
:103B00008AE30E94EB078BE30E94EB070E944808C0
:103B10008F9A87EC94E20E94310A8F9889E50E947F
:103B2000360A85E392E00E94310A512C8091B4015B
:103B300090E0252D052C000C330B281739070CF0CD
:103B400056C0552019F077E0C72E02C062E0C62E9D
:103B5000D12C8F9A86EF99E00E94310A8F9886EFD8
:103B600099E00E94310AD394CD10F3CF8F9A8CEF55
:103B700092E10E94310A8F988091B0019091B10139
:103B80000E94310A6801F60181906F0148E0442EDD
:103B900050E8A52EB12C912CC4018A219B21892BA0
:103BA00049F48F9A8091B0019091B1010E94310A3D
:103BB0008F9808C08F988091B0019091B1010E94B8
:103BC000310A8F9A8091B0019091B1010E94310A1F
:103BD000B694A7944A944110DFCFC614D70499F63F
:103BE0008F9880E090E00E94310A53949FCF80919B
:103BF0004502882341F08091FC0281110FC086E3C9
:103C00000E94EB0710C080914402882351F010926B
:103C100044020E94631581E080933C020E945A088E
:103C200002C00E94821089E50E943F0A83E70E9439
:103C30003F0A67015701F7E0AF0EB11CF601819111
:103C40006F010E94E50AAC14BD04C1F70E946E0A20
:103C5000C701EBD7C801E9D766C08237A9F464EB86
:103C600071E0C70102960E94190B89E50E943F0A84
:103C700082E70E943F0A8AE30E943F0A8091B401D2
:103C800040E260E090E02CC0843779F5F701828152
:103C9000803339F488ED94E09093B3018093B201BE
:103CA00006C062EB71E0C70102960E94190B809179
:103CB000B2019091B301969587959093B10180934D
:103CC000B00189E50E943F0A84E70E943F0A8AE327
:103CD0000E943F0A40E266E08091B2019091B301F8
:103CE0000E94720A0E946E0A1EC08837E1F4809119
:103CF0004402882341F0109244020E94631581E03F
:103D000080933C0208C082E090E00E94EF0780911F
:103D1000FC02882319F00E945A0803C086E30E941F
:103D2000EB07109245022196E0E18FC585E390E014
:103D30000E94380B8093B00386E390E00E94380B1A
:103D40008093B1030895A6E0B0E0E8EAFEE16FC514
:103D500045E0BE016F5F7F4F01960E94E90A843003
:103D6000D8F499819130B1F4833061F46A8185E3AC
:103D700090E00E94330B6B8186E390E00E94330B4E
:103D8000D5DF0AC08091B0030E94E50A8091B1039B
:103D90000E94E50A0E946E0A2696E2E064C5FF9240
:103DA0000F931F93CF93DF93EC01FC010190002050
:103DB000E9F731978F01081B190B8981823751F47C
:103DC00087E390E00E94EF070E945A0881E0809309
:103DD000B20325C0833709F5F02E5E988FE70E9465
:103DE00085078EEF800F0E948507229612E01F152F
:103DF00028F489910E9485071F5FF9CF5E9A0E947F
:103E000048088AE30E94DA078F7721F081E00E9458
:103E1000360AF7CF0E945A0802C01092B203CDB7FB
:103E2000DEB7E5E01DC5A0E8B0E0E8E1FFE1F9C4D8
:103E30008091B203882309F454C0813011F5809138
:103E4000F3029091F402A091F502B091F602209154
:103E50004602281709F445C085E30E94DA0781313C
:103E600029F48AE30E94EB070E945A088091F3022A
:103E70009091F402A091F502B091F602809346026F
:103E800030C08FE30E94DA07F82E87FD27C05E98C6
:103E90008FEF0E9485078E010F5F1F4F6801E02E94
:103EA0008C2D801B8F1538F480E00E948507F60169
:103EB00081936F01F5CF5E9A81E08093C201802FDC
:103EC0008E198F1530F4F80181918F010E943F0AFD
:103ED000F6CF0E946E0A8FEF8093C20181E080933B
:103EE000B203C058DF4FE8E0B8C40F931F93CF93DD
:103EF000DF93EC0100E0802F90E09C01220F331F44
:103F0000280F391FF901EA52FF4F1491F901E952C4
:103F1000FF4F25913491112399F0209739F480E2D5
:103F20000E943F0A812F0E943F0A08C0888118130F
:103F300005C0CE01F901099581E003C00F5FDBCF19
:103F400080E0DF91CF911F910F910895CF93C091A1
:103F5000C2018093C20180913804882309F43DC0D6
:103F600086E394E00E94520C20914702309148026F
:103F70008A3011F08D3011F52115310561F3F90109
:103F8000E75BFD4F108289E492E0AFDF811111C041
:103F90008DEB93E00E94610A89E492E00E94560A48
:103FA00085EA93E00E94610A80E090E09EDF0E9433
:103FB0006E0A1092480210924702CDCF2038310588
:103FC00050F6A9014F5F5F4F50934802409347025C
:103FD000F901E75BFD4F8083BECFC093C201CF9153
:103FE0000895E4E6F0E080818B7F8083299A84B194
:103FF000866084B9569A239880E58CBD8DB5816022
:104000008DBD0895A2E0B0E0E7E0F0E210C4EEEB71
:10401000F4E086EC94E02091F10021938E179F0745
:10402000D1F78091BE049091BF04492F50E04A30EF
:10403000510508F021C1FA01EF59FF4FE2C3803862
:1040400079F0823809F018C18091C2048093E900A8
:104050008091EB0085FB882780F91092E90006C06B
:104060008091B9049091BA04911182609091E80016
:10407000977F9093E8008093F1001092F100809177
:10408000E800982F9E7F9093E8008F778093E80058
:104090008091E80082FDB1C08091BD048111F8CF0C
:1040A000DCC0282F2D7F09F0E7C0882319F082306B
:1040B00061F036C08091C004813009F0CEC09330E9
:1040C00009F080E08093BA042BC08091C004811174
:1040D00027C08091C204877009F4BFC08093E900B3
:1040E0002091EB0020FF1CC09130A9F49091EB00CF
:1040F00090619093EB0021E030E0A90102C0440FF1
:10410000551F8A95E2F74093EA001092EA008091E9
:10411000EB00886003C08091EB0080628093EB002D
:104120001092E9008091E800877F8093E8008091F9
:10413000E800982F9E7F65C081119EC08091C004C9
:104140009091E800977F9093E8009091E800292FE4
:104150002E7F2093E8009F779093E8009091E800ED
:1041600090FD05C09091BD049111F8CF76C08F7776
:10417000982F90689093E300882309F46EC083E041
:104180008093BD046AC08058823008F075C0AE01CB
:104190004F5F5F4F6091C2048091C0049091C10451
:1041A0000E945507BC01892B09F457C09091E80083
:1041B000977F9093E80089819A812FD11EC0803823
:1041C00009F05AC08091E800877F8093E8008091D1
:1041D000BB048093F1008091E800982F9E7F90931C
:1041E000E8008F778093E8008091E80082FD05C0A9
:1041F0008091BD048111F8CF30C08091E800982FE4
:104200009B7F9093E8008F778093E80026C0811110
:1042100033C08091C0049091C10499270297ECF4B7
:104220008091E800877F8093E8008091C0048093AC
:10423000BB048091E800982F9E7F9093E8008F77D1
:104240008093E8008091BB04882311F084E001C0D2
:1042500083E08093BD040E9442098091E80083FFBF
:104260000EC08091EB0080628093EB008091E800AB
:10427000877F8093E80003C00E945A09EECF229600
:10428000E2E0F1C28093E900EBEEF0E08081816032
:104290008083EDEEF0E010826093EC00408380912B
:1042A000EE00881F8827881F08951092F40080E090
:1042B0008093E9001092F0001092E8009091ED00D8
:1042C0009D7F9093ED009091EB009E7F9093EB008B
:1042D0008F5F873069F708958091BE0487FF12C011
:1042E0008091E80082FD05C08091BD048111F8CF66
:1042F00016C08091E800982F9B7F0CC08091BD0470
:10430000882369F08091E80080FFF8CF8091E80071
:10431000982F9E7F9093E8008F778093E800089510
:1043200095E62091EC00822F817020FF05C08091DE
:10433000E80080FF05C019C02091E80022FD1AC0E6
:104340008091BD04882399F08091EB0085FD11C018
:104350008091E10082FFE5CF8091E1008B7F809327
:10436000E1009150F1F683E0089580E0089582E045
:10437000089581E008952091C4043091C504621726
:10438000730708F49B0150E021153105A9F1409114
:10439000E80043FD3EC04091E80042FD34C040913A
:1043A000BD044423C1F14091E80040FFEDCFFC0182
:1043B000CF012115310569F04091F2005091F300D1
:1043C0004830510530F481918093F100215031093A
:1043D000EFCF6091F2007091F30051E06830710509
:1043E00009F050E04091E800642F6E7F6093E80090
:1043F0004F774093E800C8CF5111C9CF04C08091D6
:10440000BD04882341F08091E80082FFF8CF80E06E
:10441000089581E0089582E008952091C4043091C8
:10442000C5046217730708F49B0150E0211531059C
:10443000B1F14091E80043FD3FC04091E80042FDEA
:1044400035C04091BD044423C9F14091E80040FFCC
:10445000EDCFFC01CF012115310571F04091F20043
:104460005091F3004830510538F484918093F10065
:10447000215031093196EECF6091F2007091F30036
:1044800051E06830710509F050E04091E800642F78
:104490006E7F6093E8004F774093E800C7CF5111DB
:1044A000C8CF04C08091BD04882341F08091E8000A
:1044B00082FFF8CF80E0089581E0089582E00895BA
:1044C0009C016115710551F18091E80083FD2CC0BC
:1044D0008091BD04882351F18091E80082FFF1CFE3
:1044E0008091F2009091F300892B51F02F5F3F4FA4
:1044F0008091F100F901319780836150710981F752
:104500009091E800892F8B7F8093E8009F779093AC
:10451000E800D7CF8091BD04882341F08091E80066
:1045200080FFF8CF80E0089581E0089582E008954B
:1045300068D06FD01092BD041092BB041092BA04E0
:104540001092B9048AE482BF80E189BD89B5826096
:1045500089BD09B400FEFDCF8091D800982F9F77C8
:104560009093D80080688093D8008091D7008160B4
:104570008093D7008091D8008F7D8093D800809160
:10458000E0008B7F8093E0008091E0008E7F80933D
:10459000E0008091E1008E7F8093E1008091E20055
:1045A00081608093E2008091E100877F8093E10049
:1045B0008091E20088608093E2008091D800816061
:1045C0008093D8000895B4DFE8EDF0E08081806149
:1045D000808381E08093BC0478940895A9DFE0EEA5
:1045E000F0E0808181608083E8EDF0E080818F776A
:1045F000808319BC80818F7E80831092BC040895D3
:104600000895E8EDF0E080818E7F80831092E200D3
:1046100008951092DA001092E10008951F920F920F
:104620000FB60F9211242F933F934F935F936F9385
:104630007F938F939F93AF93BF93EF93FF9380915B
:10464000DA0080FF15C08091D80080FF11C08091F2
:10465000DA008E7F8093DA008091D90080FF05C058
:1046600081E08093BD04CCDF03C01092BD04C8DF9D
:104670008091E10080FF1DC08091E20080FF19C0A1
:104680008091E1008E7F8093E1008091E2008E7F37
:104690008093E2008091E20080618093E20080914B
:1046A000D80080628093D80019BC85E08093BD0457
:1046B000A7DF8091E10084FF2AC08091E20084FF9F
:1046C00026C080E189BD89B5826089BD09B400FE3C
:1046D000FDCF8091D8008F7D8093D8008091E1003C
:1046E0008F7E8093E1008091E2008F7E8093E200D4
:1046F0008091E20081608093E2008091BB0481118F
:1047000002C083E001C084E08093BD0479DF809122
:10471000E10083FF23C08091E20083FF1FC08091EE
:10472000E100877F8093E10082E08093BD041092D6
:10473000BB048091E1008E7F8093E1008091E200D4
:104740008E7F8093E2008091E20080618093E2009E
:10475000ACDD42E060E080E095DD52DFFF91EF915B
:10476000BF91AF919F918F917F916F915F914F9189
:104770003F912F910F900FBE0F901F901895CF93E0
:104780008091BD04882359F0C091E900C770109250
:10479000E9008091E80083FD35DCC093E900CF910A
:1047A0000895AA1BBB1B51E107C0AA1FBB1FA61778
:1047B000B70710F0A61BB70B881F991F5A95A9F7CA
:1047C00080959095BC01CD010895052E97FB16F4B8
:1047D00000940FD057FD05D051D007FC02D046F40D
:1047E00008C050954095309521953F4F4F4F5F4FF2
:1047F000089590958095709561957F4F8F4F9F4F4D
:104800000895EE0FFF1F0590F491E02D09942F926B
:104810003F924F925F926F927F928F929F92AF9250
:10482000BF92CF92DF92EF92FF920F931F93CF939D
:10483000DF93CDB7DEB7CA1BDB0B0FB6F894DEBF34
:104840000FBECDBF09942A88398848885F846E845A
:104850007D848C849B84AA84B984C884DF80EE80A4
:10486000FD800C811B81AA81B981CE0FD11D0FB6AD
:10487000F894DEBF0FBECDBFED010895A1E21A2E60
:10488000AA1BBB1BFD010DC0AA1FBB1FEE1FFF1FF4
:10489000A217B307E407F50720F0A21BB30BE40B44
:1048A000F50B661F771F881F991F1A9469F760958B
:1048B0007095809590959B01AC01BD01CF01089545
:1048C00070D088F09F5790F0B92F9927B751A0F07A
:1048D000D1F0660F771F881F991F1AF0BA95C9F794
:1048E00012C0B13081F077D0B1E0089574C0672F65
:1048F000782F8827B85F39F0B93FCCF38695779544
:104900006795B395D9F73EF490958095709561952C
:104910007F4F8F4F9F4F0895E89409C097FB3EF457
:1049200090958095709561957F4F8F4F9F4F9923FC
:10493000A9F0F92F96E9BB279395F695879577957A
:104940006795B795F111F8CFFAF4BB0F11F460FF3A
:104950001BC06F5F7F4F8F4F9F4F16C0882311F092
:1049600096E911C0772321F09EE8872F762F05C0A6
:10497000662371F096E8862F70E060E02AF09A9541
:10498000660F771F881FDAF7880F9695879597F936
:10499000089557FD9058440F551F59F05F3F71F02F
:1049A0004795880F97FB991F61F09F3F79F0879596
:1049B0000895121613061406551FF2CF4695F1DF1F
:1049C00008C0161617061806991FF1CF86957105AF
:1049D000610508940895E894BB2766277727CB01E3
:1049E00097F908950BD078C069D028F06ED018F0F0
:1049F000952309F05AC05FC01124EECFCADFA0F39F
:104A0000959FD1F3950F50E0551F629FF001729F63
:104A1000BB27F00DB11D639FAA27F00DB11DAA1F82
:104A2000649F6627B00DA11D661F829F2227B00DCF
:104A3000A11D621F739FB00DA11D621F839FA00D5A
:104A4000611D221F749F3327A00D611D231F849FAA
:104A5000600D211D822F762F6A2F11249F57504001
:104A60008AF0E1F088234AF0EE0FFF1FBB1F661F9C
:104A7000771F881F91505040A9F79E3F510570F055
:104A800014C0AACF5F3FECF3983EDCF38695779590
:104A90006795B795F795E7959F5FC1F7FE2B880F50
:104AA000911D9695879597F9089597F99F6780E8E6
:104AB00070E060E008959FEF80EC089500240A9470
:104AC0001616170618060906089500240A941216E9
:104AD0001306140605060895092E0394000C11F41C
:104AE000882352F0BB0F40F4BF2B11F460FF04C0C9
:104AF0006F5F7F4F8F4F9F4F08950F931F93CF93FB
:104B0000DF938230910510F482E090E0E091C804D8
:104B1000F091C90420E030E0A0E0B0E0309719F156
:104B2000408151810281138148175907C8F08417C9
:104B3000950769F4109731F012960C93129713961B
:104B40001C9327C00093C8041093C90422C02115E8
:104B5000310519F04217530718F49A01BD01EF010E
:104B6000DF01F801DBCF21153105F9F0281B390BE6
:104B70002430310580F48A819B816115710521F013
:104B8000FB019383828304C09093C9048093C8047B
:104B9000FE01329644C0FE01E20FF31F8193919310
:104BA00022503109398328833AC02091C6043091BC
:104BB000C704232B41F42091B7013091B801309301
:104BC000C7042093C6042091B5013091B601211588
:104BD000310541F42DB73EB74091B9015091BA016A
:104BE000241B350BE091C604F091C704E217F307CC
:104BF000A0F42E1B3F0B2817390778F0AC014E5F4D
:104C00005F4F2417350748F04E0F5F1F5093C704BE
:104C10004093C6048193919302C0E0E0F0E0CF019D
:104C2000DF91CF911F910F910895CF93DF9300975C
:104C300009F481C0FC01329713821282A091C8044A
:104C4000B091C904109781F420813181820F931FA4
:104C50002091C6043091C7042817390751F5F09305
:104C6000C704E093C60467C0ED0120E030E0CE1732
:104C7000DF0740F44A815B819E0141155105F1F047
:104C8000EA01F5CFD383C28340815181840F951F00
:104C9000C817D90759F488819981840F951F029606
:104CA000918380838A819B8193838283211531053F
:104CB00029F4F093C904E093C8043DC0E901FB83E3
:104CC000EA8349915991C40FD51FEC17FD0761F490
:104CD00080819181840F951F0296E90199838883D1
:104CE000828193819B838A83E0E0F0E012968D912C
:104CF0009C911397009719F0FD01DC01F7CF8D917E
:104D00009C9111979D012E5F3F4F820F931F209121
:104D1000C6043091C7042817390769F4309729F47D
:104D20001092C9041092C80402C013821282B09378
:104D3000C704A093C604DF91CF910895F999FECFDF
:104D400092BD81BDF89A992780B50895262FF999CB
:104D5000FECF1FBA92BD81BD20BD0FB6F894FA9A5E
:0C4D6000F99A0FBE01960895F894FFCF59
:104D6C001100000001000000C100A801B1014501C3
:104D7C000401C50080016C01C600BD018401C7009F
:104D8C00BD018401BD00020111000000F200000110
:104D9C000001820126000801E00000010401080165
:104DAC000B010C0111010D010E01000104010801A0
:104DBC00130114012F0129012401E1000001040158
:104DCC0008010B010C0111010D010E010001040180
:104DDC000801130114012F012901240126000801E7
:104DEC00FD000001080129008000F80146020503BE
:104DFC00400440054006400740084009030A1F1FB5
:104E0C008025000000000810B07106000401A40108
:0C4E1C006C02D804060000CA042000004C
:00000001FF
