:10000000F4C100000EC200000CC200000AC20000D1
:1000100008C2000006C2000004C200000C94431491
:1000200000C20000ABC300000C940F23FAC1000013
:10003000F8C10000F6C10000F4C10000F2C10000E8
:10004000F0C100000C94F013ECC10000EAC1000004
:10005000E8C10000E6C10000E4C100000C94990969
:10006000E0C10000DEC10000DCC10000DAC1000018
:10007000D8C10000D6C10000D4C10000D2C1000028
:10008000D0C10000CEC10000CCC10000CAC1000038
:100090008EC30000C6C10000C4C10000C2C1000080
:1000A000C0C10000BEC10000BCC100002004250486
:1000B0002A042F04340439043E04EE0443044804A3
:1000C0004D045204EE04EE04EE04EE04EE04EE04DD
:1000D000EE04EE045404CF06D606FE06DD06E40662
:1000E000FE06EB06F206FE06F806202052203D2111
:1000F00052203D219D20C4203D21E02008214117B0
:100100001742D60B436B0865FF0B46E30D66D01E06
:1001100047E60D68100F69911A4B8F0E4D240E5251
:10012000530B54A41E74E70956320C57950B588B89
:100130001078320859951C7AE0190000002A034310
:100140000055004C003800360038000000160362ED
:10015000007500730077006100720065002E006476
:1001600000650000000403090409024300020100C5
:100170008032090400000102020100052400011080
:1001800005240103010424020605240600010705D5
:1001900082030800FF09040100020A0000000705AD
:1001A0000402400000070583024000001201100114
:1001B00002000008EB034B20000001020001202F89
:1001C0002000203D2000072E050DD391FF080500DB
:1001D000000C0021656A2D3B1322F862073F181DB1
:1001E0001CC700B0876BF8B611EA2A001F41000D4A
:1001F0002E2D07D3913D04320000060021656A557B
:10020000E43023B900070018146C070090876BF8DE
:100210005611E92A001F410000030F1E2627000087
:1002200000030F1E2536386700030F256740605016
:1002300000030F275188838100030F2750C8C3C2D2
:100240000027000000000000006700000000000020
:1002500000500000000000000081000000000000CD
:1002600000C20000000000005620312E3637204327
:10027000554C3836380043554C5F563300202F20FC
:1002800000203D20004C4F56460D0A00424F564676
:100290000D0A004552523A4343410D0A000B081023
:1002A0005B11F81547191D1A1C1BC71C001DB22134
:1002B000B623EA0007022E030D04E905CA070C0B5A
:1002C000060D210E650F6A10C8119312031534171D
:1002D00033181819161B4321562500261129592CAD
:1002E000812D353EC30001022E030104AA050F062D
:1002F000FF070008000B060D210E740FAD104B1107
:10030000F8121613721541181819161B0323E92445
:100310002A2500261F3E500001022E030104AA05D3
:100320000F06FF070008000B060D210E660F661072
:10033000CA1193120613521535181819161B0323E8
:10034000E9242A2500261F3E500001022E03010445
:100350005505F006FF070008000B060D210E660F7D
:100360009910591183121E13521535181819161B9E
:100370000323E9242A2500261F3E500D2E2D07D3E6
:10038000913D04320000060010B07155E43023B9ED
:1003900000070018146C070090876BF85611E92AC3
:1003A000001F41000D2E2D07D3913D0432000006A1
:1003B0000010ABA5550A3023B900070018146C07CC
:1003C0000090876BF85611E92A001F4100206973DD
:1003D00020756E6B6E6F776E2920557365206F6E7A
:1003E00065206F66003F2028000011241FBECFEF5C
:1003F000DAE0DEBFCDBF11E0A0E0B1E0EEE6FDE463
:1004000002C005900D92AE3BB107D9F724E0AEEBE8
:10041000B1E001C01D92AF3CB207E1F7C3D30C9429
:10042000B526EECD862798E067E0880F08F486278A
:100430009A95D9F708952AB1242B2AB92BB1342FD4
:10044000309523233BB1432B3FB7F894FC01680F51
:10045000791FE617F707C1F0819198E04BB90000CA
:1004600000C087FF2BB9880F000000C000C000C08B
:100470002BB900C000C000C000C000C000C000C058
:1004800000C09A9559F7E5CF3FBF08959B01220F11
:10049000331F620F731FCFDF8FEA94E00197F1F7EC
:1004A00000C00000089540E2F1CF27E030E090E086
:1004B0005C98EFE8F1E03197F1F700C00000AC0183
:1004C000022E02C0559547950A94E2F7BA01617071
:1004D000772740FD06C0EFE8F1E03197F1F700C063
:1004E00000005C9AEFE8F1E03197F1F700C00000FE
:1004F000672B31F0EFE8F1E03197F1F700C0000031
:1005000021503109A8F65C988FE891E00197F1F746
:1005100000C000005C9AEFE8F1E03197F1F700C00D
:10052000000008955C988FED9EE20197F1F700C0FE
:1005300000005C9A8FED91E00197F1F700C0000098
:100540005C988FEC97E00197F1F700C000005C9A8F
:100550009AE19A95F1F700C00895AC015C98E1E04A
:10056000F0E02A9895B18FEF860F9F0102C0220F0D
:10057000331F8A95E2F724233523232B11F420E03F
:1005800001C024E0922B95B929988FE891E001975A
:10059000F1F700C00000299A8FE891E00197F1F788
:1005A00000C000006150E9F62A985C9A0895CF9344
:1005B000DF93C8E8D1E060E189919991CEDF21E035
:1005C000CE39D207C1F7C0E0D1E081E0C838D80702
:1005D00089F089919991009751F48FEF9BED25E077
:1005E000815090402040E1F700C00000EECF69E06C
:1005F000B4DFEBCFDF91CF91089590917A009760AF
:1006000090937A0090E490937B0090937C008830E4
:1006100028F0885090917B00906203C090917B00FD
:100620009F7D90937B0090917C008770892B8093B5
:100630007C0080917A00806880937A008FE39FE14C
:100640000197F1F700C0000080917A0080648093E8
:100650007A0080917A0086FDFCCF8091780020910D
:10066000790090E0922B08958EE580937C00809134
:100670007A00806880937A0080917B008F7D8093E0
:100680007B008FE39FE10197F1F700C000008091AC
:100690007A00806480937A0080917A0086FDFCCF96
:1006A00080917A00806480937A0080917A0086FD40
:1006B000FCCF209178008091790030E0382B032E18
:1006C000000C440B550B64EB7BE281E190E00E944F
:1006D000E623C901089587EC80937C0080E2809333
:1006E0007B0080917A00877D80937A0080917A00E8
:1006F000806880937A008FE39FE10197F1F700C053
:10070000000080917A00806480937A0080917A0062
:1007100086FDFCCF80917A00806480937A0080917E
:100720007A0086FDFCCF809178002091790090E0DE
:10073000922B0895A2E0B0E0E0EAF3E00C941824D4
:100740002091CB043091CC042115310511F42FEC0C
:1007500034E0CE010196821B930B2296E2E00C94CA
:100760003424F894880F8093BA0085EC8093BC0001
:100770008FEF8093D9028093EF0208951F920F921A
:100780000FB60F9211248F939F93189909C08091EF
:10079000DE029091DF0201969093DF028093DE02E9
:1007A0009F918F910F900FBE0F901F9018951F92E1
:1007B0000F920FB60F9211242F933F934F935F9395
:1007C0006F937F938F939F93AF93BF93EF93FF9319
:1007D0008091B900887F8038A9F068F4882309F4F3
:1007E000C2C1803609F0C1C185EC8093BC008FEF97
:1007F0008093D902BDC1883A09F403C1883B09F44A
:1008000000C1B3C18091D9028F3F09F056C06091F9
:10081000BB006093A10180E005DE8093DA021092B4
:10082000D9021092C001E091A1018E2F90E0853194
:10083000910508F0D3C0FC01EA5AFF4F0C94022442
:100840008091F2029091F30233C08091D202909194
:10085000D3022EC08091ED029091EE0229C08091CA
:10086000D7029091D80224C08091F4029091F502B1
:100870001FC08091E9029091EA021AC08091E302C0
:100880009091E40215C08091E1029091E20210C0C3
:100890008091D0029091D1020BC08091D5029091AD
:1008A000D60206C047DF04C08091E5029091E602BF
:1008B0009093BF018093BE0191C081110CC08091C3
:1008C000BB008093E0026091BB008091DA02AADD58
:1008D0008093DA027EC09091BB002091DA02291346
:1008E00073C0813009F070C08091A101873829F46C
:1008F0008091E00280939F016CC08D3841F480911B
:10090000E0028F3F11F4469A64C0469862C08E3868
:1009100041F48091E0028F3F11F42C9A5AC02C9838
:1009200058C08F3841F48091E0028F3F11F42E9A25
:1009300050C02E984EC0803941F48091E0028F3F24
:1009400011F4479A46C0479844C0813941F48091D8
:10095000E0028F3F11F4729A3CC072983AC082391B
:1009600089F48091E0028F3F11F42D9A32C08130DA
:1009700029F42D9A82E08093E0022BC02D981092EA
:10098000E00227C0833941F48091E00287BD809165
:10099000E00280939E011DC0843929F48091E00219
:1009A0008093DC020DC0853929F48091E0028093A8
:1009B000DB0206C0863941F48091E0028093DD02BB
:1009C00081E08093D40205C08091C0018F5F809345
:1009D000C0018091D9028F5F8093D90285EC80930A
:1009E000BC008091A101823909F0C2C08091E0026F
:1009F000823009F0BDC085E88A95F1F700002D9896
:100A0000B7C000C000C000008091A1018F3009F480
:100A100067C078F49091D9028C3030F4883028F592
:100A2000873008F04EC021C08D3009F44FC068F106
:100A300052C0833109F47AC040F49091D9028131D7
:100A400009F45AC008F453C065C0873841F018F45F
:100A5000843159F07FC08D588A3008F07BC0809176
:100A6000DA028093BB008FEF1BC08091D902811105
:100A700003C08091BE010DC0813019F48091BF0187
:100A800008C0823009F05DC059C091110CC080913E
:100A9000DC028093BB006091BB008091DA02C2DC73
:100AA0008093DA025AC0913019F48091DB02F1CFC1
:100AB000923019F48091DD02ECCF933009F041C0FF
:100AC0003DC0911130C08091A001E3CF91112BC0A6
:100AD000369B26C023C0911126C01C9B21C01EC07E
:100AE0008091D902811128C01E9B1AC017C0911194
:100AF0001AC0379B15C012C0911103C0629B10C071
:100B00000DC09130D9F08FEF8093BB008EEF8093B2
:100B1000D9021AC0911107C01D9B02C08FEFB9CF37
:100B20001092BB00B8CF913061F408C08091D90217
:100B3000811102C087B5ADCF813019F48091DA02FE
:100B40000AC08FEF8093BB008091C0018F5F8093BC
:100B5000C00103C08FEF8093BB008091D9028F5FEB
:100B60008093D90202C085ED01C085EC8093BC0062
:100B7000FF91EF91BF91AF919F918F917F916F9175
:100B80005F914F913F912F910F900FBE0F901F904B
:100B90001895F89481E085BF82E085BFE0E0F8E336
:100BA000099508959FE088E10FB6F894A895809381
:100BB00060000FBE9093600090E080E80FB6F8945C
:100BC00080936100909361000FBE04B603FE0AC0DB
:100BD00083E390E04ED5882329F060E083E390E042
:100BE00043D5D7DF109280008AE08093810084B7DC
:100BF000877F84BF10BA88E78AB91DB887EF84B9A8
:100C0000289880EC87B98EEB87BDC1E0C5BD81E82F
:100C100084BD80916E00816080936E008AE2A1DDC8
:100C20008091680081608093680080916B00816092
:100C300080936B0078948FEF8093DC028093DB02CB
:100C40008093DD0261E070E08BED92E02CDCAFDCA4
:100C500069DC1092DC021092DB021092DD0261E08E
:100C600070E08BED92E01FDC87ED87BD0E94F21FE4
:100C7000EBD50E94E4220E94971E0E946D1087EA25
:100C80009FE19093F1028093F002C093C60110E0BF
:100C90000FE031EDF32EC0E0D4E08091FC029091A2
:100CA000FD028532944F48F12091DE023091DF023F
:100CB000029FC001039F900D11249093E202809344
:100CC000E1021092DF021092DE021092FD021092F9
:100CD000FC0220919E012E3F81F48133914118F056
:100CE00087B58F5F87BD8091E1029091E2028031EC
:100CF0009E4018F487B5815087BD499905C0809101
:100D0000C0018F5F8093C0018091C001833338F0B0
:100D1000F092BC008AE225DD1092C00178948091A7
:100D2000D402882339F061E070E08BED92E0BBDB08
:100D30001092D4028091A00190919F01981748F4DD
:100D400081508093A00188E5B0DB8091A0018F7174
:100D5000ACDB8091A00190919F01891748F48F5FCF
:100D60008093A00188E5A1DB8091A0018F719DDBBC
:100D70001A3068F41F5F812F90E0FC013197EA3050
:100D8000F10508F03BC0E559FF4F0C94022487E0C1
:100D900034DC9093F3028093F20210E07AC086E094
:100DA0002CDC9093D3028093D20273C085E025DCC3
:100DB0009093EE028093ED026CC084E01EDC909371
:100DC000D8028093D70265C081E017DC9093F502CA
:100DD0008093F4025EC080E010DC9093EA0280937E
:100DE000E90257C041DC9093D1028093D00251C0F8
:100DF00072DC9093D6028093D5024BC08AE0FDDB73
:100E00009093E4028093E3022091E7023091E8029C
:100E10002817390720F49093E8028093E702209185
:100E2000EB023091EC028217930720F49093EC02CE
:100E30008093EB028091C1018F5F8093C1018D335C
:100E400040F16091E7027091E8028091EB0290918D
:100E5000EC02860F971F96958795681B790B80E0AB
:100E600090E00E948D2424EF3DEF44E35FE30E9475
:100E7000F3240E9461247093E6026093E502D0930C
:100E8000EC02C093EB021092E8021092E70210927B
:100E9000C1010E94C02388D10E94A411AED20E9439
:100EA000141F0E94B6150E94B218F7CE292F3327BF
:100EB0002230310559F02330310569F021303105F8
:100EC000E9F482E190E02CEA31E01CC083E490E098
:100ED00029E631E017C099278130910549F028F0C3
:100EE000029761F4EDE3F1E005C0E5E6F1E002C050
:100EF000EDE4F1E0849190E09F0104C080E090E097
:100F000020E030E0FA013183208308958EBD0DB4D6
:100F100007FEFDCF8EB50895EF92FF920F931F93BA
:100F2000CF93C82F8A3008F0C8E028E0C29F800124
:100F300011248BE290E00B521109FC01E00FF11F2C
:100F4000E85EFD4F64917C012FEFE21AF20A8CD328
:100F5000C7018333910589F7C550C53010F067E1AB
:100F600001C061E184E290E07FD3CF911F910F91A6
:100F7000FF90EF900895CF93DF9382E090E0FC0123
:100F8000E351FE4F6491EC0121966ED3CE01AB97F5
:100F9000B1F787E390E0FC01E157FE4F6491EC016B
:100FA000219662D3CE01C036D105A9F788E0B4DF1F
:100FB000DF91CF9108955E98806CA8DF80E0A6DF76
:100FC0005E9A0895CF93C62F5E9880649FDF8C2F22
:100FD0009DDF5E9ACF9108955E9898DF5E9A08959E
:100FE000EF92FF920F931F93CF93DF93EC01EE9854
:100FF000569A5E9A8EE190E035D25E988EE190E04E
:1010000031D25E9A8DE290E02DD280E3E5DF84E676
:1010100090E028D25E9880E479DF8E01075D1F4F53
:101020007E018FEFE81AF80ACE0123D36FDFE701C4
:10103000E016F106A9F75E9A5E988EE767DF8BE20D
:1010400090E0EC01219615D361DFCE01E397C9F75B
:101050005E9A83E3C1DF81E00AD2CDB7DEB7E6E076
:101060000C943024A1E0B0E0E8E3F8E00C941824FC
:1010700022E0298341E0BE016F5F7F4F0196AAD233
:1010800089814ADF82E090E0ABDF2196E2E00C94B8
:101090003424CF93EE9886E39FDFCFEF85E39CDF88
:1010A000C1508077803229F08AE090E0DBD1C11115
:1010B000F5CFCF910895CF93CFEF84E38DDFC1506B
:1010C0008077803129F08AE090E0CCD1C111F5CF52
:1010D000EE9ACF910895A2E0B0E0E1E7F8E00C9439
:1010E00016248C01FC0181818737E9F441E0BE01BF
:1010F0006F5F7F4FC80102966DD2892BA1F041E04E
:10110000BE016E5F7F4FC801049664D2892B59F0EF
:101110006A81898157DF83E35FDFCDDF898156D222
:101120008A8154D22CC041E0BE016E5F7F4FC8015E
:10113000019650D2892B21F18A81893969F410E016
:10114000812F39DF43D2812F8770873009F4C7D1CF
:101150001F5F1033A9F714C02EDF182F83E490D13E
:101160008A8134D282EC91E0ADD1812F2FD28EEBE7
:1011700091E0A8D140E262E0812F90E0B4D1AFD1FC
:101180002296E4E00C94322486E326DF1092F602E5
:1011900010924002089582E090E022DF81E0809387
:1011A000F6021092400208958091C204843009F042
:1011B00069C08093E9008091C20181112AC08091A9
:1011C000E80085FF26C08091F2009091F300892B02
:1011D00031F06091F1008BE394E04FD3F4CF809134
:1011E000E800982F9B7F9093E8008F778093E8002A
:1011F00081E08093C20184ED98E09093CF028093C8
:10120000CE02E091F002F091F10281E00995109296
:10121000C20183E08093E9008091BA03882391F1B1
:101220008091E80085FF2EC0F8948091BA0388234E
:1012300069F08091F2009091F3008034910530F4D0
:1012400088EB93E030D38093F100EFCF7894209136
:10125000F2003091F3008091E800982F9E7F9093E8
:10126000E8008F778093E8002034310559F40E941C
:1012700091218091E800982F9E7F9093E8008F77CE
:101280008093E800089542E061EC82E00E944321EF
:1012900042E361E883E00E94432142E360E884E0A6
:1012A0000E9443211092A2011092A3011092A40166
:1012B0001092A50108958091C3049091C4049132C5
:1012C00029F0923261F1903299F512C0813A81F59C
:1012D0008091E800877F8093E80067E070E082EA11
:1012E00091E00E94BC218091E800982F9B7F11C063
:1012F0008132F1F48091E800877F8093E80067E015
:1013000070E082EA91E00E9461228091E800982FCB
:101310009E7F9093E8008F778093E8000895813254
:1013200039F48091E800877F8093E8000C946D2168
:1013300008951F920F920FB60F9211248F939F93CF
:10134000AF93BF938091FC029091FD020196909320
:10135000FD028093FC028091C3018F5F8A3F18F4E5
:101360008093C3011AC01092C3018091F80290913A
:10137000F902A091FA02B091FB020196A11DB11DE4
:101380008093F8029093F902A093FA02B093FB02C3
:101390008091F7028F5F8093F702BF91AF919F9189
:1013A0008F910F900FBE0F901F901895FC019FB763
:1013B000F8944091F8025091F9026091FA0270910C
:1013C000FB0240835183628373839FBF0895A4E02F
:1013D000B0E0EDEEF9E00C941824CE010196E6DFC2
:1013E0008C81F4D08B81F2D08A81F0D08981EED0CB
:1013F00076D02496E2E00C9434248091F802909107
:10140000F902A091FA02B091FB022091C5012817C0
:1014100041F18091F8029091F902A091FA02B09105
:10142000FB028093C501A8958091F7028D37C8F023
:101430001092F7028091FE029091FF02843823E01F
:10144000920728F401969093FF028093FE02809108
:10145000C4018F5F8C3319F08093C40108951092FA
:10146000C4010895880F991F0197F1F7089520EDA1
:1014700037E0815020F0F9013197F1F7FACF089564
:10148000CF939091C204943081F49091C60190FF63
:101490000CC0C82F8091BA0387FD86DE6C2F88EBC5
:1014A00093E0EBD1CA3009F47FDECF910895CF935A
:1014B000DF93EC018991882311F0E2DFFBCFDF910C
:1014C000CF910895CF93DF93EC01FE01849188239F
:1014D00019F0D6DF2196F9CFDF91CF9108958DE0F5
:1014E000CFDF8AE0CDCFA6E0B0E0E9E7FAE00C94E8
:1014F0001624362F1E8225E0EAE0F0E0215001E0BC
:1015000010E00C0F1D1F020F111DBF010E94D223FE
:10151000805DD8018C93CB013150009769F0211187
:10152000EDCF0AC0222359F02150E1E0F0E0EC0FAA
:10153000FD1FE20FF11D4083315037FFF3CF81E0F3
:1015400090E08C0F9D1F820F911DB1DF2696E4E085
:101550000C943224A5E0B0E0E0EBFAE00C94162401
:10156000FC011D8294E02E2F2F709150A92FB0E026
:101570002A3010F4205D01C0295C01E010E00C0F5E
:101580001D1FA00FB11F2C9384E0F695E7958A9557
:10159000E1F76150309739F7615067FD0BC099232F
:1015A00049F09150E1E0F0E0EC0FFD1FE90FF11D73
:1015B0004083F2CF21E030E02C0F3D1F290F311D79
:1015C000C90175DF2596E4E00C94322440E362E023
:1015D00090E0C0CFDC01FB0130E020E09D91992339
:1015E000B1F0913608F0905280ED890F8A3010F4F6
:1015F000982F05C08FEB890F863028F49753922BD4
:10160000332389F006C0903249F39A3339F3CF017E
:1016100007C09F012F5F3F4F9083415049F4C9019C
:10162000861B970B0895292F2295207F31E0D6CF76
:10163000F901D2CFFC0120E030E08AE091919923BA
:1016400079F040ED490F4A30C8F7829FA001839F8F
:10165000500D11249A0120533109290F311DEECF6D
:10166000FB013183208308950E94A726F999FECFBC
:1016700008950C949F2608950F931F93CF93CFEF57
:10168000C60FCF3F61F08C010F5F1F4FF2DF9EDF6F
:10169000CC2311F08AE3F4DEC150C801F2CFCF9120
:1016A0001F910F910895A2E0B0E0E9E5FBE00C94F2
:1016B0001524FC0121812D3421F466E08AEF93E0AA
:1016C00005C0203529F460E18AED93E0D5DF28C01C
:1016D0001A82198242E0BE016F5F7F4F01967ADF66
:1016E000823031F409811A8110270127102702C0A6
:1016F000098110E0C801BDDFF82E82E5C1DE40E3BC
:1017000064E0C80127DF81E892E0DCDE8F2D5EDF38
:101710008DE792E0D7DE40E262E08F2D90E0E3DEDD
:10172000DEDE2296E5E00C943124A6E0B0E0EBE9A1
:10173000FBE00C9412248C0143E0BE016F5F7F4FED
:10174000019648DF823070F1823019F4C980D12CC3
:1017500005C0C980DA80DC24CD24DC247C01FF2490
:10176000FE01EE0DFF1D6081C6017EDFEE0CFF1C49
:101770008FEFE81AF80A0E0D1F1DF80180818823EB
:1017800089F041E0BE016F5F7F4FC80123DF892BE5
:1017900049F0EFEFCE1ADE0A6981C60165DF0E5F00
:1017A0001F4FEBCF2696E8E00C942E24A1E0B0E08A
:1017B000ECEDFBE00C9418241982009731F041E025
:1017C000BE016F5F7F4F019605DF89818F3F09F46E
:1017D000FFCF882321F061E083E390E045DF0E94A2
:1017E000EF2210926E00F89498E088E10FB6F8941A
:1017F000A895809360000FBE90936000FFCFCF93B9
:10180000DF93EC0161E080E090E02EDF63E481E0B3
:1018100090E02ADFB0DB60E080E690E025DF60E06A
:1018200081E690E021DF60E083E390E01DDF62E08D
:1018300084E390E019DF8981883719F080E090E037
:10184000B5DFDF91CF91089580E090E012DF813025
:1018500029F481E090E00DDF833419F080E090E01E
:10186000CECF0895FC018181883419F486E792E097
:1018700002C088E692E026DE32CEFC019FB7F894E3
:10188000828187FD0EC08F5F8283208181E0820F7D
:101890008083DF01A20FB11D13966C93803809F489
:1018A00010829FBF0895FC012FB7F89482818111A7
:1018B00002C02FBF08959FEF980F9283918181E01E
:1018C000890F8183DF01A90FB11D13969C91803888
:1018D00009F411822FBF892F0895FA01908188237E
:1018E00069F0DB01A90FB11DE1E0F0E0022E01C0BB
:1018F000EE0F0A94EAF78C91E82BEC93222319F06F
:101900008FEF820F0BC081E0890F8C3010F4FA0149
:101910008083FB01E80FF11D108287E090E00895BD
:10192000CF93C82F8F9A882319F08091C90102C0E4
:101930008091CB0120E1829FC001112493DD8F981B
:10194000CC2319F08091C80102C08091CA0120E126
:10195000829FC001112486DDCF910895A9E0B0E0F7
:10196000E4EBFCE00C9408244C01B62E422EDE2C55
:10197000E42EF12C97012E5F3F4F8C2D8A0D029F94
:10198000800D1124082E000C990B2091FE0230913D
:10199000FF022817390720F485E892E093DD8AC01A
:1019A000281B390B3093FF022093FE028091F60230
:1019B000811101C0F0DB6DDB80E1C89E9001112434
:1019C0003A83298320E1A29EF0011124FC83EB835A
:1019D0008B2D90E09E838D8366246394712C512C13
:1019E000C11002C0AA2041F08F9A89819A813ADD04
:1019F0008F988B819C8136DD1F82EF818E2FEE0FB9
:101A0000990B2D813E818217930734F480E088DFA3
:101A10009F819F5F9F83F1CFBB2011F081E080DF2A
:101A200010E0812F012E000C990B998788878E1565
:101A30009F05D4F487E0282E312C88859985880D60
:101A4000991D99878887C301022C01C0880F0A94C9
:101A5000EAF7E885F9859081892362DFF1E02F1AA2
:101A6000310888F71F5FDDCF17E0880D991D998732
:101A70008887812F012E000C990B481659066CF4AB
:101A8000C301012E01C0880F0A94EAF7E885F985A1
:101A90009081892345DF1150ECCF8D2DE8DC01507A
:101AA00009F09ECF80910103882311F004DB02C06E
:101AB00086E392DA2996E2E10C942424ADE0B0E0CA
:101AC000E4E6FDE00C940D247C01D62E842F022F39
:101AD0005701A60EB11C462FB70132D3F501808302
:101AE00011E01D0D1D86198227E0712CCC24C394B2
:101AF000D12C97E0A92EB12C4701870C911C7116AF
:101B000058F5C6010A2C01C0880F0A94EAF7F401BF
:101B10009081AE01435F5F4FBE016F5F7F4F8923AE
:101B2000DCDE282FF1E0AF1AB10848F7F40180811C
:101B3000082E82958025082E8695869580258F5FB4
:101B400086958170AE01435F5F4FBE016F5F7F4F2F
:101B5000C4DE282F7394CDCF222311F0215004C06E
:101B60008D858F5F8D8727E089E18093CA018093FF
:101B7000CB0185E28093C8018093C901A12CC12CBF
:101B80008AE0E82E4D856CE0CE010196E7DE2D96C9
:101B9000EDE00C942924ACE0B0E0E1EDFDE00C9424
:101BA0001624162F042F4BE0BE016F5F7F4F019666
:101BB00011DD202F412F682FCE0101967FDF2C965B
:101BC000E4E00C94322443E066E0E5CFAF92CF929C
:101BD000EF920F93CF93DF93CDB7DEB760970FB639
:101BE000F894DEBF0FBECDBF40E1BE016F5F7F4FF7
:101BF0000196F0DC69814A810B818C818093CB0155
:101C00008D818093CA018E818093C9018F818093D9
:101C1000C801E02EE2948FE0E8220F70242F2F708D
:101C200042954F70A12CC12CCE01089697DE60968C
:101C30000FB6F894DEBF0FBECDBFDF91CF910F91ED
:101C4000EF90CF90AF900895A9E1B0E0EAE2FEE016
:101C50000C940E244BE08E010F5F1F4FB8010196CC
:101C6000B9DCF82E89E0F81256C089E18093CA01E8
:101C70008093CB018093C90182E38093C80169E01E
:101C8000C80168D2F801EF0DF11D8083198E1D8601
:101C9000680127E088248394912CE12CF12CBC2C42
:101CA000B01AF9E0FB1528F1C4010E2C01C0880F11
:101CB0000A94EAF7F6019081AE01475E5F4FBE01DC
:101CC000635F7F4F892309DE282FFFEFEF1AFF0A9A
:101CD00088E0E816F10429F7AE01475E5F4FBE01C8
:101CE000635F7F4F81E0F9DD282FEFEFCE1ADE0A28
:101CF000D4CF222311F0215004C0898D8F5F898FAA
:101D000027E0A12CC12C8AE0E82E03E0498D6CE08D
:101D1000CE010D9623DE6996ECE00C942A24A9E10D
:101D2000B0E0E5E9FEE00C940F244BE09E012F5F4C
:101D30003F4F7901B90101964DDC182F85E380935F
:101D4000CB0196E19093CA019093C9018093C80199
:101D5000612FC7010BD2F701E10FF11D8083992498
:101D60009394910E198E1D86670127E0AA24A394EF
:101D7000B12C8C2D8E19891508F044C000E010E0BC
:101D8000C501002E01C0880F0A94EAF7F601908180
:101D9000AE01475E5F4FBE01635F7F4F89239DDDCC
:101DA000282F0F5F1F4F0430110551F7AE01475E1A
:101DB0005F4FBE01635F7F4F81E08FDD282FC5013C
:101DC000002E01C0880F0A94EAF7F6019081AE0157
:101DD000475E5F4FBE01635F7F4F89237EDD282F03
:101DE0000F5F1F4F0830110551F7AE01475E5F4F7F
:101DF000BE01635F7F4F81E070DD282FFFEFCF1AB8
:101E0000DF0AB7CFA12CC12C8AE0E82E03E0498D70
:101E10006AE0CE010D96A2DD6996EBE00C942B24CE
:101E2000AF92CF92EF920F93CF93DF93CDB7DEB700
:101E30002C970FB6F894DEBF0FBECDBF4BE0BE01AE
:101E40006F5F7F4F0296C6DB8530C1F48EE38093CF
:101E5000CB018CE18093CA0181E28093C9018AE3BE
:101E60008093C80185E2A82E9AEFC92EE12C05E0E7
:101E700024E044E068E0CE01019670DD2C960FB6B8
:101E8000F894DEBF0FBECDBFDF91CF910F91EF90E1
:101E9000CF90AF900895A0E0B0E0E1E5FFE00C94B2
:101EA0000E24DC011092DF011092EC011196DC90FF
:101EB0001197DD0CDD0CDD0C13968C911397D81A5D
:101EC0008D2D97E0B92EBD0C1092E00128E0D22EA6
:101ED000D80E71E090E040E087E057E0C12C37E099
:101EE000E32EF12C01E010E07D1509F47DC0FD0129
:101EF000EC0DF11D248130E0052E02C035952795AB
:101F00000A94E2F721703327552311F0515002C093
:101F1000C39457E06B3479F4833009F049C0411120
:101F200008C0232B09F05DC01092DF019093EC01F3
:101F300070C040E03FC08F3F39F56634B1F4E92FFF
:101F4000F0E0E052FE4FE0810E2EE295E0250E2EED
:101F5000E695E695E025EF5FE695E170CE2F812CC2
:101F6000D82D2C173D0741F004C0653429F4232BEC
:101F700019F44093DF01DACF9F5FE92FF0E0E052E0
:101F8000FE4F108287E02EC0232B49F1663469F49E
:101F9000E92FF0E0E052FE4FA0809801082E01C02A
:101FA000220F0A94EAF72A2919C0653429F017C0CC
:101FB0008F3FE9F2232B99F0E92FF0E0E052FE4F3A
:101FC0009701281B310987FD3395480102C0880C11
:101FD000991C2A95E2F794013081232B20838150AC
:101FE00001C041E07F5F80CF4093DF019093EC011F
:101FF000B71678F4653431F48F3F21F49F5F9093E6
:10200000EC0102C04111FACF81E09091EC019111F5
:1020100001C080E0CDB7DEB7ECE00C942A2410922A
:102020006F00E091EF0184E1E89FF0011124E0519D
:10203000FE4F10820895FC0181818C3008F0EFCFB3
:10204000662389F0DF01A80FB11D21E030E0038095
:1020500002C0220F331F0A94E2F714969C91149742
:10206000292B14962C939381992319F091509383E3
:10207000089597E093838F5F8183E80FF11D1482A9
:102080000895DC01362F11962C911197E22FF0E084
:1020900050E09C91BF01641B750B655F7F4F6731FA
:1020A0007105C8F4892F90E0632F70E09C01261B16
:1020B000370B255F3F4F2731310568F49F01280F0B
:1020C000391F640F751F261B370B255F3F4F81E0BB
:1020D0002731310508F080E00895879A8F986E982F
:1020E000EAE6F0E080818061808382EC91E0909369
:1020F000FF028093FE02E0EFF1E0148A10A614AE16
:102100001092F602089580910103882319F043D8B4
:102110000C945B0839C8FC01218121110BC080910E
:10212000010354DA40E265E08091FE029091FF02E3
:10213000DAD9D5C941E061E073E001964BDAE3CF2B
:10214000442339F04150FB01E40FF11D9081890FC8
:10215000F7CF08959C0180E0662339F06150F901C2
:10216000E60FF11D90818927F7CF0895FC0170914A
:10217000DF0140E095E020E0662399F06150DF0147
:10218000A60FB11D3C91532F52955F702527950FD7
:10219000772311F0442319F03F702327930F4F5FEB
:1021A000EBCF920F30E1939FC0011124822B089551
:1021B000FC0182819381A081B181A80FB11D2C9176
:1021C00030E0092E02C0359527950A94E2F7217078
:1021D0003FEF390F3383911104C08F5F828387E013
:1021E0008383822F0895A0E0B0E0E9EFF0E10C9442
:1021F0000F248C01942EC62ED12CC0E0D0E0B12C3F
:10220000AA24A394760121E0E21AF108CC15DD0599
:10221000C9F0C801CDDF882399F0992051F0C7019A
:102220008C1B9D0B2A2D01C0220F8A95EAF7822F65
:1022300006C08A2D0C2E01C0880F0A94EAF7B82A2E
:102240002196E4CF8B2DCDB7DEB7EBE00C942B2499
:10225000A4E0B0E0EEE2F1E10C940F241B8227E051
:102260002C839C012C5F3F4F3A8329831092EC0111
:10227000FC012181338187E090E0831B9109F8E024
:102280002F9F800D911D1124853491050CF44FC0B2
:10229000912C0091EC01063070F5E02EF12C40E01D
:1022A00068E0CE0101969FDF9701A90140525E4F81
:1022B0007A01FA018083182F012E12951025012E24
:1022C000169516951025CE01019672DF1F5F11FB42
:1022D000AA24A0F8B12C90E0A816B90641F5CE01C9
:1022E000019666DF811123C0F701808198260F5F78
:1022F0000093EC01CECF40E068E0CE01019673DFA1
:10230000082F182F012E12951025012E16951695BF
:102310001025CE0101964CDF1F5F11FBCC24C0F8C5
:10232000D12C90E0C816D90611F481E0901280E01B
:102330002496EBE00C942B248091000380FD03C0D5
:102340008460809300030895A1E0B0E0EAEAF1E13F
:102350000C940E2419828091CC01882391F18091F4
:10236000010387FF16C084E30E94DB078058803496
:1023700058F0803C58F490E08055910923E0959501
:1023800087952A95E1F703C080E001C08FE08F595F
:1023900077D88091010383FF12C082E771D88091C2
:1023A000010384FF03C08091CD016AD886E668D816
:1023B0008091010384FF03C08091CC0161D8109209
:1023C000CC018091ED01882309F406C20091EE0151
:1023D00024E1029F8001112400511E4F8981811147
:1023E00039C066E4C80157DD8823A1F1F090EC0103
:1023F000FA94F092EC014F2D60EE71E086E0A0DEE1
:10240000EF2DF0E0E052FE4FE0808E1105C093E02A
:102410009F1510F486E41BC0282F30E02F5F3F4F3C
:102420004E2D50E02417350739F4A3E0AF1520F402
:1024300096E4998380830EC04F2D60EE71E08CE0AE
:102440007FDEE81206C0B3E0BF1518F484E5898387
:1024500001C01982898181111FC065E4C8011BDD9B
:10246000882389F08091EC0181508093EC018930C0
:1024700051F469E080EE91E06DDE9091E9018913FD
:1024800002C085E489838981811106C0C801E0DE2C
:10249000882311F088E48983898181113AC0F80189
:1024A00043896091CD01C8014296EBDD682FC801D8
:1024B000C2DD6BE4C801EFDC8823C1F0E091EC01E0
:1024C000FF24FA94FE0EF092EC016F2D80EE91E065
:1024D0004DDEEF2DF0E09091DF01E91BF109E052B4
:1024E000FE4F9081891302C08BE489838981811119
:1024F00010C0D80113968C911397873021F08F5F0D
:1025000013968C9320C0F8011382818181508183BE
:102510001AC079814091010340FF15C080910003EA
:102520008E7F8B7F80930003942F927041FF9BC01E
:10253000743509F4FDC0B801CE010196FDDE80912D
:10254000000382FD15C18091010382FF7AC080E7FC
:102550000E94400AF801808140E262E090E00E941F
:10256000730AD80150968C9140E265E0B0E18B9FF0
:10257000C00111240E94730AF801818940E265E0DC
:10258000F0E18F9FC00111240E94730AD801529676
:102590008C9140E265E0B0E18B9FC00111240E9464
:1025A000730AF801838940E265E0F0E18F9FC00182
:1025B00011240E94730AD80112968C9140E263E0C4
:1025C00090E00E94730AF801818140E263E090E0AC
:1025D0000E94730AD80113969C9140E262E027E0C2
:1025E00030E0F901E91BF109CF010E94730A80E292
:1025F0000E94400A8091010385FF08C084E30E9485
:10260000DB070E94E60A80E20E94400AD801139686
:102610008C911397873031F011968C9111978F5FC1
:1026200011968C93F12CF8018181F81640F4F80191
:10263000EF0DF11D84810E94E60AF394F4CF0E940D
:102640006F0AD8011C928091ED0181508093ED01B9
:102650008091EE018F5F843019F08093EE01BCC051
:102660001092EE01B9C05091DE016091EC01561359
:102670003EC080E08517C0F4282F30E0E1E0E80F8D
:10268000D901AE52BE4F20523E4FFC91D9012C9140
:10269000F21741F08093DE01209100032D7F2093FB
:1026A000000304C08E2FE6CF8093DE0158131FC0B5
:1026B000C090F802D090F902E090FA02F090FB028C
:1026C0008090CE019090CF01A090D001B090D10128
:1026D000C818D908EA08FB08B6E2CB16D104E10411
:1026E000F10428F480910003816080930003961721
:1026F00060F4292F30E0F901EE52FE4FD901A052CB
:10270000BE4F8C9180839F5FF2CF9093DE018091CA
:10271000F8029091F902A091FA02B091FB02809325
:10272000CE019093CF01A093D001B093D10100CFFF
:1027300046FD01CF8091EC01853008F4FCCE8091FC
:10274000E2018B3479F0893669F09DEA980F923076
:1027500048F08D57823030F08091E30180778037E8
:1027600009F0E9CE80910003816080930003E3CEFD
:1027700089810E94400A8091DF01882329F080919D
:10278000EC0181508093EC01F12CE091EC01FE16FC
:1027900048F4EF2DF0E0E052FE4F80810E94E60AFF
:1027A000F394F3CF8091DF01882351F0F0E0E05201
:1027B000FE4F80818F7040E361E090E00E94AA0AA2
:1027C0008091010385FF05C084E30E94DB070E941E
:1027D000E60A0E946F0AB7CE2196ECE00C942A24F8
:1027E0001F920F920FB60F9211242F933F934F9386
:1027F0005F936F937F938F939F93AF93BF93EF9369
:10280000FF9310926F008091010383FF03C08EE25B
:102810000E94400A8091EF0194E1899FF001112408
:10282000E051FE4F9081933018F09181923010F476
:10283000F6DB18C09091ED01933049F480910103CB
:1028400082FFF6CF8CE892E00E94620AF1CF9F5F90
:102850009093ED018F5F843019F08093EF0102C0F7
:102860001092EF01FF91EF91BF91AF919F918F91E6
:102870007F916F915F914F913F912F910F900FBE7C
:102880000F901F9018951F920F920FB60F92112460
:10289000FF920F931F932F933F934F935F936F93E9
:1028A0007F938F939F93AF93BF93CF93DF93EF93D8
:1028B000FF938091B703882321F082E08093B703D0
:1028C000EDC00091840010918500E4E01695079515
:1028D000EA95E1F7C091EF0184E1C89FE00111247E
:1028E000C051DE4F8881843039F40E3208F4D6C0EE
:1028F0000F3410F094DBD2C066990CC0843039F4E8
:1029000061E0CE0198DB1092850010928400009364
:10291000CD01C4C08091CD01081B0093CC01109261
:102920008500109284008881843021F460E0CE011B
:1029300082DBB4C082E086BBF8800091CD01F1104B
:102940000FC0053608F0AAC08091CC01853608F08A
:10295000A5C0088B898B81E08A8382E088839EC032
:102960001091CC0182E0412F602FF81248C0CE01B7
:10297000409687DB2A818823F9F0888990E0AC01B2
:10298000440F551F840F951F800F911D95958795B6
:1029900095958795888B898990E0AC01440F551FE8
:1029A000840F951F810F911D959587959595879516
:1029B000898B2F5F2A8372C02430F8F080EA9FE071
:1029C00090938900809388008A818C3050F0288908
:1029D000898990E0820F911D8536910514F084E07D
:1029E00001C083E088830A8B1B8B198287E08B836D
:1029F0001C8282E080936F0051C01882A2CFCE016A
:102A000042963FDB882301F161E0CE0114DB8A8925
:102A100090E09C01220F331F820F931F800F911DA6
:102A200095958795959587958A8B8B8990E09C01E4
:102A3000220F331F820F931F810F911D959587954C
:102A4000959587958B8B2AC0412F602FCE0140969C
:102A500018DB882301F160E0CE01EDDA888990E08F
:102A60009C01220F331F820F931F800F911D95959C
:102A7000879595958795888B898990E09C01220F91
:102A8000331F820F931F810F911D95958795959503
:102A90008795898B03C087E0F8122CCFFF91EF91C7
:102AA000DF91CF91BF91AF919F918F917F916F9166
:102AB0005F914F913F912F911F910F91FF900F9038
:102AC0000FBE0F901F9018950F931F93CF93DF9316
:102AD000EE98569A5E9A8EE190E00E94320A5E98D5
:102AE0008EE190E00E94320A5E9A8DE290E00E94B0
:102AF000320A80E30E94EC0784E690E00E94320AEA
:102B0000C3EBD2E0FE0131966491FE0184910E94F4
:102B1000E2072296F2E0C53EDF07A1F7809141026D
:102B2000811107C083E30E94EC0784E00E94370A0A
:102B300010C0CDE9D2E003EB12E0FE0131966491C2
:102B4000FE0184910E94E20722960C171D07A9F747
:102B5000E9CF84E30E94EC0785E30E94DB078D3018
:102B6000C1F7DF91CF911F910F910895A2E3B0E0DB
:102B7000ECEBF5E10C94162480914002882309F4D3
:102B800093C0669B7EC08FE30E94DB078F778983AB
:102B9000823308F07DC05E988FEF0E94860710E0B8
:102BA0008981181760F480E00E948607E2E0F0E077
:102BB000EC0FFD1FE10FF11D80831F5FF1CF80E05F
:102BC0000E948607082F80E00E9486075E9A84E3B1
:102BD0000E94EC0785E30E94DB078D30C1F78A81F4
:102BE00096E798279A8392E02981E92FF0E09217DF
:102BF00068F421E030E02C0F3D1FE20FF31F20812D
:102C00008452822780839F5F822FEECF81E090E005
:102C10008C0F9D1FE80FF91F90818B81892780837E
:102C20008091010384FF12C081E60E94400A10E0F7
:102C30008981811730F1E1E0F0E0EC0FFD1FE10F39
:102C4000F11D80810E94400A1F5FF2CF81E40E9443
:102C5000400A10E08981811758F0E1E0F0E0EC0FC4
:102C6000FD1FE10FF11D80810E94E60A1F5FF2CF78
:102C70008091010385FF03C0802F0E94E60A0E9415
:102C80006F0A85E30E94DB07813029F0813161F40E
:102C90008AE30E94EC0786E30E94EC078DE30E9422
:102CA000EC0784E30E94EC07E296E4E00C94322403
:102CB000AAE3B0E0EEE5F6E10C940E2441E38E01C8
:102CC0000F5F1F4FB80101960E94EA0A7C019C0128
:102CD000332721503109898190E02817390709F0FD
:102CE000A2C080914002811104C0EEDE83E00E9408
:102CF000370ADB809A8186E789278A8322E0398137
:102D0000822F90E0F801E80FF91F231750F4DE013D
:102D1000A80FB91F8C9184529081892780832F5FDF
:102D2000EECF80818D258083CE01C7960E94D60983
:102D300085E30E94EC0785E30E94DB07833181F184
:102D4000CE01C3960E94D6094BA95CA96DA97EA9A4
:102D50008FA998ADA9ADBAAD84179507A607B70797
:102D600060F44A015B01881A990AAA0ABB0A2DEB92
:102D700082169104A104B10470F4481759076A0738
:102D80007B0770F484549F4FAF4FBF4F8417950754
:102D9000A607B70728F483E992E00E94620A27C0D9
:102DA00085E30E94DB07833119F6D4FE08C088E76B
:102DB0000E94370A88E70E94370A88E701C08AE044
:102DC0000E94370A5E988FE70E94860768018C2D63
:102DD000801B8E1530F4F60181916F010E948607E9
:102DE000F6CF5E9A85E30E94DB078331D9F385E352
:102DF0000E94DB07863149F48BE30E94EC0786E3EF
:102E00000E94EC078DE30E94EC078091400288232A
:102E100049F084E30E94EC0785E30E94DB078D30D4
:102E2000C1F701C070D9EA96ECE00C942A24FC01A9
:102E30009181923731F0923559F481E080934102CB
:102E400002C01092410240DE81E08093400208956A
:102E5000933719F4CF0101962BCF109240020895B9
:102E60000E945B08EE9808950F931F93CF93DF9312
:102E7000569A5E9A8EE190E00E94320A5E988EE148
:102E800090E00E94320A5E9A8DE290E00E94320A3F
:102E900080E30E94EC0784E690E00E94320A809171
:102EA000AB038933D9F4C9E4D3E00BE713E0FE01A7
:102EB00031966491FE0184910E94E20722960C17DC
:102EC0001D07A9F783E30E94EC0784E00E94370AFC
:102ED000C7DFDF91CF911F910F910895843379F46B
:102EE000C7E1D3E0FE0131966491FE0184910E9416
:102EF000E2072296F3E0C934DF07A1F7E3CF81337D
:102F000009F7C5EED2E0FE0131966491FE0184918D
:102F10000E94E2072296F3E0C731DF07A1F7D2CF84
:102F2000FC0190818091B003981317C0918180912A
:102F3000B103981312C092818091B20398130DC00F
:102F400093818091B303981308C090858091B40356
:102F5000981729F081E09F3F19F080E0089581E003
:102F600008959C018FEF662339F06150F901E60F57
:102F7000F11D90818927F7CF0895DC012FE03DE115
:102F800070E0AD01481B590B461757070CF54D91E2
:102F9000E32FFF27E427AF01529542954F70452755
:102FA0005F704527E427F527322F2227A9014E27F6
:102FB0005F279F01322F22273295307F2427352724
:102FC00045E0EE0FFF1F4A95E1F72E273F27D9CFA7
:102FD000C9010895A0E0B0E0E0EFF7E10C941224FD
:102FE0008C01C62F8091AB03893339F464E182E10F
:102FF0000E94E2076C2F660F6D5E86E00E94E2077A
:103000000E9449085E988FE70E9486078091AB0373
:10301000893331F07801C8018C0F911DEC0150C04B
:10302000DFE086E60E948607D150D9F78AEA0E943F
:10303000860785E50E94860778016801CC0ED11CC1
:10304000EC14FD04B1F1F701C1917F01C7FD02C08D
:1030500090E401C090E8C6FD02C080E101C080E2BA
:10306000890FC5FD02C094E001C098E0890FC4FD3E
:1030700002C091E001C092E0890F0E948607C3FD63
:1030800002C090E401C090E8C2FD02C080E101C02E
:1030900080E2890FC1FD02C094E001C098E0890F71
:1030A000C0FD02C091E001C092E0890F0E94860736
:1030B000C7CF80E00E94860780E00E9486070AC092
:1030C000CE15DF0539F0F70181917F0180950E94CF
:1030D0008607F6CF5E9A85E30E94DB078331D9F33A
:1030E0006FEF86E00E94E2078091AB03893321F401
:1030F0006EE182E10E94E207B3DEF801858186FF7E
:103100002CC08091F8029091F902A091FA02B0913E
:10311000FB020696A11DB11D8093AC039093AD03F5
:10312000A093AE03B093AF03809142028F5F809370
:103130004202823060F08AE70E94400A82E70E94E1
:10314000400A809142020E94E60A0E946F0A809122
:103150004202833010F010924202CDB7DEB7E8E0B1
:103160000C942E24A8EAB0E0E8EBF8E10C940E24CD
:1031700080914302882309F41EC180914202882372
:10318000D9F04091F8025091F9026091FA027091E1
:10319000FB028091AC039091AD03A091AE03B0917E
:1031A000AF0384179507A607B70730F46091AA0309
:1031B00082E093E00FDFFFC0669BFDC05E988FEF5B
:1031C0000E9486078E010F5F1F4F6E0189E0C80EB7
:1031D000D11C780180E00E948607F70180839091DE
:1031E000AB03993311F080958083FFEFEF1AFF0A4C
:1031F000EC14FD0479F75E9AF88487EF8F0D803A1E
:1032000010F032DED8C06F2D86E00E94E207809178
:10321000AB03813331F0843341F47CEDA72EB12C24
:1032200008C06AE5A62EB12C04C058E9A52E53E0CB
:10323000B52E30EAC32E48E0E42E8F2C912CC50128
:103240000E94320A8BE30E94DB07D82E882329F1E3
:1032500090E08E0D911D881699069CF25E988FEF76
:103260000E948607DE0CED1471F080E00E94860754
:103270009091AB03993309F08095F801EE0DF11DA3
:103280008083E394F0CF5E9AEF1438F08091AB0323
:10329000CF2CD12C813301F504C0CA94C110CFCFFB
:1032A000F5CFEFEFFFEFEC0FFD1FEC0DFD1D808163
:1032B00090E0982F8827FE01EC0DFD1D20816C0108
:1032C000C20ED11C6EEF6F0DC80157DEEE24E394E1
:1032D000C816D90661F40CC06FEF6F0DC80141DE4E
:1032E000FE01EC0DFD1DEE24E39490819813E12C7A
:1032F00080914302823789F5C80112DE882391F05C
:10330000EE2089F08AE70E94400A6801F601819167
:103310006F010E94E60A8C2D801B8F15B8F30E9466
:103320006F0A01C0E12C80914302823781F4EE20C4
:1033300071F08E81982F9370933029F4909142020E
:1033400091111092420286FF02C087FF09C06FEF01
:1033500086E00E94E20784DD2EC0EE20C1F3D2CFCA
:103360008AE00E94370A8D8189878091B4038D831A
:1033700083E08E838091AB03813349F48BE08887AF
:1033800069E0C801FADD9A878B876BE007C08AE0A5
:10339000888769E0C801E5DD8A876AE0C8011ADE2E
:1033A0008AE70E94400A81E60E94400A89850E94BD
:1033B000E60A0E946F0AC855DF4FECE00C942A24FD
:1033C000FC012181223711F02D3651F4FC0182815C
:1033D000811101C084E38093AB032093430244CD69
:1033E000233771F41092420248EA62E073E00296D9
:1033F0000E94EA0A8093AA03682F82E093E0EACD54
:10340000293671F5FC012281222331F045E060EB81
:1034100073E002960C94EA0A809143020E94400AEB
:103420008091AB030E94400A80E20E94400A809192
:10343000B0030E94E60A8091B1030E94E60A8091DF
:10344000B2030E94E60A8091B3030E94E60A80E27A
:103450000E94400A8091B4030E94E60A0C946F0A0D
:10346000109243020895CF93DF93EE98569A5E9A96
:103470008EE190E00E94320A5E988EE190E00E9418
:10348000320A5E9A8DE290E00E94320A80E30E9446
:10349000EC0784E690E00E94320A5E9880E40E9485
:1034A0008607CBE7D3E0FE0184910E948607219630
:1034B000F3E0C838DF07B9F78091A9010E948607B9
:1034C0008091AA010E9486078091AB010E94860725
:1034D000C0E0D0E0FE01E557FC4F84910E948607D2
:1034E0002196C931D105B1F75E9A5E988EE70E94A8
:1034F00086078BE290E0EC0121960E94390B0E9436
:103500008607CE01E397B9F75E9A83E30E94EC0742
:1035100081E00E94370A81E08093F602DF91CF912B
:103520000895A0E0B0E0E7E9FAE10C941024EC0182
:103530008981843769F460EB71E0CE0102960E94C4
:103540001A0B40E260E08091B0019091B10112C08D
:10355000833709F084C18A81823789F46CEA71E08B
:10356000CE0103960E941A0B40E260E08091AC010C
:103570009091AD010E94730A0E946F0AD2C180919E
:10358000460281110DC080914002882329F081E01C
:10359000809345021092400266DF83E00E94370A62
:1035A00086E30E94EC078AE30E94EC078BE30E940B
:1035B000EC070E944908FE0101900020E9F7EC1B8E
:1035C000FEEFFF2EFE0E10E0AAE0BA2EB5E0EB2EC5
:1035D00088E2A82E2091AC013091AD01812F012EFF
:1035E000000C990B8217930708F005C131E2F31222
:1035F00014C08F9A8091B0019091B1010E94320A5B
:103600008F988091AE019091AF01FC01BE9EC001E8
:10361000BF9E900D11240E94320A6E01F2E0CF0E7F
:10362000D11C01E00F150CF0BCC0F60181916F01B7
:10363000803309F048C0F1E28F9AFF1220C08091D8
:10364000AE019091AF010E94320A8F988091AE0135
:103650009091AF010E94320A8F9A8091AE019091B1
:10366000AF010E94320A8F988091AE019091AF0114
:103670009C01E29EC001E39E900D11248EC08091BA
:10368000B0019091B1010E94320A8F988091B001EF
:103690009091B1019C01220F331F820F931F0E9452
:1036A000320A8F9A8091B0019091B1010E94320A42
:1036B0008F988091B0019091B1019C01220F331F2E
:1036C000820F931F6AC0813339F531E28F9AF3126A
:1036D00012C08091AE019091AF010E94320A8F9882
:1036E0008091AE019091AF01FC01EE9EC001EF9E72
:1036F000900D112420C08091B0019091B1019C01E6
:10370000220F331F820F931F0E94320A8F988091DD
:10371000B0019091B1012EC0F1E28F9AFF121AC050
:103720008091AE019091AF010E94320A8F988091F2
:10373000AE019091AF010E94320A8F9A8091AE0142
:103740009091AF010E94320A8F988091AE019091C2
:10375000AF0123C08091B0019091B1010E94320A63
:103760008F988091B0019091B1019C01220F331F7D
:10377000820F931F0E94320A8F9A8091B00190911C
:10378000B1019C01220F331F820F931F0E94320A46
:103790008F988091B0019091B1010E94320A0F5F21
:1037A00041CF21E28F9AF21214C08091AE01909124
:1037B000AF010E94320A8F988091AE019091AF01C3
:1037C000FC01AE9EC001AF9E900D11240E94320AF2
:1037D00010C08091B0019091B1010E94320A8F987F
:1037E0000FE18091B0019091B1010E94320A015025
:1037F000C1F71F5FEFCE80914602882341F0809190
:10380000010381110EC086E30E94EC070FC0809176
:103810004502882349F01092450256D981E08093F1
:1038200040020E945B0802C00E94831089E60E9449
:10383000400A83E70E94400A11E01F150CF09CCE5D
:10384000FE01E10FF11D17FDFA958181803319F01A
:10385000813309F086E40E94400A1F5FEECF823771
:1038600071F480914002882329F081E08093450221
:1038700010924002F8DD81E08093460252C0863605
:1038800051F58A81803351F480E18093A90180EB66
:103890008093AA0181E78093AB0107C043E069EA06
:1038A00071E0CE0102960E94EA0A89E60E94400A6F
:1038B00086E60E94400A8AE30E94400A8091A9019C
:1038C0000E94E60A8091AA010E94E60A8091AB015B
:1038D0000E94E60A51CE8837E1F4809145028823A0
:1038E00039F010924502F0D881E08093400208C080
:1038F00082E090E00E94F00780910103882319F094
:103900000E945B0803C086E30E94EC071092460207
:1039100008C0833631F460EB71E0CE0101960E945D
:103920001A0BCDB7DEB7EAE097C7A1E0B0E0EAE94D
:10393000FCE170C77C01FC018181833709F08EC1F5
:10394000198287E090E00E947E258C0141E0BE0153
:103950006F5F7F4FC70102960E94EA0A8981F801D2
:10396000808341E0BE016F5F7F4FC70104960E94D4
:10397000EA0A8981807FD82EF801818341E0BE0167
:103980006F5F7F4FC70106960E94EA0A8981F8019E
:10399000828341E0BE016F5F7F4FC70108960E949E
:1039A000EA0A8981F801838341E0BE016F5F7F4F9E
:1039B000C7010A960E94EA0A8981F801868341E0DC
:1039C000BE016F5F7F4FC7010C960E94EA0A898192
:1039D000F801858341E0BE016F5F7F4FC7010E96FE
:1039E0000E94EA0A8981F80184833801F7E06F0EAA
:1039F000711CF80180E09191292F22952F70922758
:103A00008927E615F705B9F78F708D29F8018183AD
:103A100087E090E00E947E257C0187E0F801D701D5
:103A200001900D928A95E1F798012A5F3F4FF801C6
:103A3000DF01319611969C9111978C918927808393
:103A4000E217F307A9F780914902811157C08091CD
:103A50004002882329F081E08093480210924002BE
:103A6000EE98569A5E9A8EE190E00E94320A5E9835
:103A70008EE190E00E94320A5E9A8DE290E00E9410
:103A8000320A80E30E94EC0784E690E00E94320A4A
:103A90005E9880E40E948607E4EACE2EE3E0DE2E04
:103AA000FDECAF2EF3E0BF2EF60184910E94860755
:103AB000FFEFCF1ADF0AAC14BD04B1F75E9A5E982F
:103AC0008EE70E9486078BE290E06C012FEFC21A0E
:103AD000D20A0E94390B0E948607C60183339105E2
:103AE000A1F75E9A83E30E94EC0781E00E94370A07
:103AF00081E08093F60283E00E94370A86E30E9409
:103B0000EC078AE30E94EC078BE30E94EC070E941B
:103B100049088F9A87EC94E20E94320A8F9889E5CF
:103B20000E94370A85E392E00E94320A512C80916C
:103B3000B60190E0252D052C000C330B2817390712
:103B40000CF056C0552019F077E0C72E02C062E095
:103B5000C62ED12C8F9A86EF99E00E94320A8F9858
:103B600086EF99E00E94320AD394CD10F3CF8F9A5A
:103B70008CEF92E10E94320A8F988091B20190916D
:103B8000B3010E94320A6801F60181906F0148E09A
:103B9000442E50E8A52EB12C912CC4018A219B21E2
:103BA000892B49F48F9A8091B2019091B3010E94C0
:103BB000320A8F9808C08F988091B2019091B3011A
:103BC0000E94320A8F9A8091B2019091B3010E94B3
:103BD000320AB694A7944A944110DFCFC614D70492
:103BE00099F68F9880E090E00E94320A53949FCF1C
:103BF00080914902882341F08091010381110FC017
:103C000086E30E94EC0710C080914802882351F09F
:103C1000109248020E94641581E0809340020E9445
:103C20005B0802C00E94831089E50E94400A83E776
:103C30000E94400A67015701F7E0AF0EB11CF60180
:103C400081916F010E94E60AAC14BD04C1F70E9485
:103C50006F0AC701EBD7C801E9D766C08237A9F45C
:103C600066EB71E0C70102960E941A0B89E50E947B
:103C7000400A82E70E94400A8AE30E94400A80913B
:103C8000B60140E260E090E02CC0843779F5F7019E
:103C90008281803339F488ED94E09093B50180936C
:103CA000B40106C064EB71E0C70102960E941A0BD2
:103CB0008091B4019091B501969587959093B30149
:103CC0008093B20189E50E94400A84E70E94400A7D
:103CD0008AE30E94400A40E266E08091B40190913C
:103CE000B5010E94730A0E946F0A1EC08837E1F472
:103CF00080914802882341F0109248020E94641586
:103D000081E08093400208C082E090E00E94F007CA
:103D100080910103882319F00E945B0803C086E3A9
:103D20000E94EC07109249022196E0E18FC585E3DD
:103D300090E00E94390B8093B50386E390E00E94E7
:103D4000390B8093B6030895A6E0B0E0E9EAFEE1FE
:103D50006FC545E0BE016F5F7F4F01960E94EA0A82
:103D60008430D8F499819130B1F4833061F46A8160
:103D700085E390E00E94340B6B8186E390E00E9423
:103D8000340BD5DF0AC08091B5030E94E60A80910A
:103D9000B6030E94E60A0E946F0A2696E2E064C516
:103DA000FF920F931F93CF93DF93EC01FC010190DF
:103DB0000020E9F731978F01081B190B89818237A1
:103DC00051F487E390E00E94F0070E945B0881E0D5
:103DD0008093B70325C0833709F5F02E5E988FE7EF
:103DE0000E9486078EEF800F0E948607229612E0BF
:103DF0001F1528F489910E9486071F5FF9CF5E9AEC
:103E00000E9449088AE30E94DB078F7721F081E056
:103E10000E94370AF7CF0E945B0802C01092B703D6
:103E2000CDB7DEB7E5E01DC5A0E8B0E0E9E1FFE110
:103E3000F9C48091B703882309F454C0813011F587
:103E40008091F8029091F902A091FA02B091FB02E0
:103E500020914A02281709F445C085E30E94DB0738
:103E6000813129F48AE30E94EC070E945B0880916B
:103E7000F8029091F902A091FA02B091FB028093AE
:103E80004A0230C08FE30E94DB07F82E87FD27C06F
:103E90005E988FEF0E9486078E010F5F1F4F6801AB
:103EA000E02E8C2D801B8F1538F480E00E94860751
:103EB000F60181936F01F5CF5E9A81E08093C60190
:103EC000802F8E198F1530F4F80181918F010E9497
:103ED000400AF6CF0E946F0A8FEF8093C60181E0FF
:103EE0008093B703C058DF4FE8E0B8C40F931F9327
:103EF000CF93DF93EC0100E0802F90E09C01220F34
:103F0000331F280F391FF901E250FF4F1491F901B7
:103F1000E150FF4F25913491112399F0209739F406
:103F200080E20E94400A812F0E94400A08C08881D6
:103F3000181305C0CE01F901099581E003C00F5F98
:103F4000DBCF80E0DF91CF911F910F910895CF9348
:103F5000C091C6018093C60180913D04882309F475
:103F60003DC08BE394E00E94530C20914B023091B2
:103F70004C028A3011F08D3011F52115310561F3B5
:103F8000F901E35BFD4F10828DE492E0AFDF811118
:103F900011C085EE93E00E94620A8DE492E00E94D7
:103FA000570A8DEC93E00E94620A80E090E09EDF69
:103FB0000E946F0A10924C0210924B02CDCF203813
:103FC000310550F6A9014F5F5F4F50934C0240936B
:103FD0004B02F901E35BFD4F8083BECFC093C60166
:103FE000CF910895E4E6F0E080818B7F8083299A69
:103FF00084B1866084B9569A239880E58CBD8DB5CE
:1040000081608DBD0895A2E0B0E0E8E0F0E210C468
:10401000E3ECF4E08BEC94E02091F10021938E1717
:104020009F07D1F78091C3049091C404492F50E0B9
:104030004A30510508F021C1FA01EB58FF4FE2C3A5
:10404000803879F0823809F018C18091C7048093D4
:10405000E9008091EB0085FB882780F91092E90048
:1040600006C08091BE049091BF049111826090912E
:10407000E800977F9093E8008093F1001092F100A0
:104080008091E800982F9E7F9093E8008F7780932F
:10409000E8008091E80082FDB1C08091C2048111E6
:1040A000F8CFDCC0282F2D7F09F0E7C0882319F056
:1040B000823061F036C08091C504813009F0CEC0F5
:1040C000933009F080E08093BF042BC08091C50439
:1040D000811127C08091C704877009F4BFC0809305
:1040E000E9002091EB0020FF1CC09130A9F49091D1
:1040F000EB0090619093EB0021E030E0A90102C059
:10410000440F551F8A95E2F74093EA001092EA00A7
:104110008091EB00886003C08091EB008062809307
:10412000EB001092E9008091E800877F8093E8001F
:104130008091E800982F9E7F65C081119EC080917C
:10414000C5049091E800977F9093E8009091E80073
:10415000292F2E7F2093E8009F779093E80090917D
:10416000E80090FD05C09091C2049111F8CF76C08F
:104170008F77982F90689093E300882309F46EC09E
:1041800083E08093C2046AC08058823008F075C012
:10419000AE014F5F5F4F6091C7048091C50490915D
:1041A000C6040E945607BC01892B09F457C09091A0
:1041B000E800977F9093E80089819A812FD11EC0F3
:1041C000803809F05AC08091E800877F8093E8002A
:1041D0008091C0048093F1008091E800982F9E7F29
:1041E0009093E8008F778093E8008091E80082FD4B
:1041F00005C08091C2048111F8CF30C08091E800E1
:10420000982F9B7F9093E8008F778093E80026C0DB
:10421000811133C08091C5049091C60499270297FB
:10422000ECF48091E800877F8093E8008091C504DA
:104230008093C0048091E800982F9E7F9093E800BF
:104240008F778093E8008091C004882311F084E088
:1042500001C083E08093C2040E9443098091E8007A
:1042600083FF0EC08091EB0080628093EB00809111
:10427000E800877F8093E80003C00E945B09EECFCF
:104280002296E2E0F1C28093E900EBEEF0E080815B
:1042900081608083EDEEF0E010826093EC0040835B
:1042A0008091EE00881F8827881F08951092F400DF
:1042B00080E08093E9001092F0001092E800909165
:1042C000ED009D7F9093ED009091EB009E7F909389
:1042D000EB008F5F873069F708958091C30487FFF3
:1042E00012C08091E80082FD05C08091C204811156
:1042F000F8CF16C08091E800982F9B7F0CC080916A
:10430000C204882369F08091E80080FFF8CF809193
:10431000E800982F9E7F9093E8008F778093E800C5
:10432000089595E62091EC00822F817020FF05C052
:104330008091E80080FF05C019C02091E80022FDAF
:104340001AC08091C204882399F08091EB0085FD0A
:1043500011C08091E10082FFE5CF8091E1008B7F69
:104360008093E1009150F1F683E0089580E0089594
:1043700082E0089581E008952091C9043091CA0433
:104380006217730708F49B0150E021153105A9F16C
:104390004091E80043FD3EC04091E80042FD34C03A
:1043A0004091C2044423C1F14091E80040FFEDCFA9
:1043B000FC01CF012115310569F04091F2005091C7
:1043C000F3004830510530F481918093F100215081
:1043D0003109EFCF6091F2007091F30051E0683045
:1043E000710509F050E04091E800642F6E7F609302
:1043F000E8004F774093E800C8CF5111C9CF04C0FF
:104400008091C204882341F08091E80082FFF8CFB8
:1044100080E0089581E0089582E008952091C90424
:104420003091CA046217730708F49B0150E021150C
:104430003105B1F14091E80043FD3FC04091E800F3
:1044400042FD35C04091C2044423C9F14091E800C7
:1044500040FFEDCFFC01CF012115310571F04091F6
:10446000F2005091F3004830510538F48491809364
:10447000F100215031093196EECF6091F200709138
:10448000F30051E06830710509F050E04091E80018
:10449000642F6E7F6093E8004F774093E800C7CFAA
:1044A0005111C8CF04C08091C204882341F080918B
:1044B000E80082FFF8CF80E0089581E0089582E06F
:1044C00008959C016115710551F18091E80083FD0B
:1044D0002CC08091C204882351F18091E80082FFB2
:1044E000F1CF8091F2009091F300892B51F02F5F72
:1044F0003F4F8091F100F90131978083615071093C
:1045000081F79091E800892F8B7F8093E8009F7757
:104510009093E800D7CF8091C204882341F0809126
:10452000E80080FFF8CF80E0089581E0089582E000
:10453000089568D06FD01092C2041092C0041092F7
:10454000BF041092BE048AE482BF80E189BD89B5B0
:10455000826089BD09B400FEFDCF8091D800982FFC
:104560009F779093D80080688093D8008091D7007F
:1045700081608093D7008091D8008F7D8093D80090
:104580008091E0008B7F8093E0008091E0008E7F3F
:104590008093E0008091E1008E7F8093E100809124
:1045A000E20081608093E2008091E100877F809348
:1045B000E1008091E20088608093E2008091D80061
:1045C00081608093D8000895B4DFE8EDF0E0808149
:1045D0008061808381E08093C10478940895A9DF8D
:1045E000E0EEF0E0808181608083E8EDF0E08081A2
:1045F0008F77808319BC80818F7E80831092C10465
:1046000008950895E8EDF0E080818E7F8083109218
:10461000E20008951092DA001092E10008951F92CE
:104620000F920FB60F9211242F933F934F935F93E6
:104630006F937F938F939F93AF93BF93EF93FF936A
:104640008091DA0080FF15C08091D80080FF11C0F2
:104650008091DA008E7F8093DA008091D90080FF0C
:1046600005C081E08093C204CCDF03C01092C20475
:10467000C8DF8091E10080FF1DC08091E20080FFD3
:1046800019C08091E1008E7F8093E1008091E2006B
:104690008E7F8093E2008091E20080618093E2004F
:1046A0008091D80080628093D80019BC85E0809307
:1046B000C204A7DF8091E10084FF2AC08091E2005C
:1046C00084FF26C080E189BD89B5826089BD09B4B7
:1046D00000FEFDCF8091D8008F7D8093D80080911F
:1046E000E1008F7E8093E1008091E2008F7E8093D5
:1046F000E2008091E20081608093E2008091C0043A
:10470000811102C083E001C084E08093C20479DF9C
:104710008091E10083FF23C08091E20083FF1FC0EE
:104720008091E100877F8093E10082E08093C20462
:104730001092C0048091E1008E7F8093E10080910F
:10474000E2008E7F8093E2008091E200806180939E
:10475000E200ACDD42E060E080E095DD52DFFF91F9
:10476000EF91BF91AF919F918F917F916F915F91E9
:104770004F913F912F910F900FBE0F901F90189562
:10478000CF938091C204882359F0C091E900C7708B
:104790001092E9008091E80083FD35DCC093E900C8
:1047A000CF910895AA1BBB1B51E107C0AA1FBB1FD5
:1047B000A617B70710F0A61BB70B881F991F5A95AD
:1047C000A9F780959095BC01CD010895052E97FB22
:1047D00016F400940FD057FD05D051D007FC02D03D
:1047E00046F408C050954095309521953F4F4F4F66
:1047F0005F4F089590958095709561957F4F8F4F8D
:104800009F4F0895EE0FFF1F0590F491E02D09943E
:104810002F923F924F925F926F927F928F929F92D0
:10482000AF92BF92CF92DF92EF92FF920F931F93BE
:10483000CF93DF93CDB7DEB7CA1BDB0B0FB6F8946F
:10484000DEBF0FBECDBF09942A88398848885F84AF
:104850006E847D848C849B84AA84B984C884DF8020
:10486000EE80FD800C811B81AA81B981CE0FD11D04
:104870000FB6F894DEBF0FBECDBFED010895A1E2E3
:104880001A2EAA1BBB1BFD010DC0AA1FBB1FEE1FCA
:10489000FF1FA217B307E407F50720F0A21BB30B15
:1048A000E40BF50B661F771F881F991F1A9469F791
:1048B00060957095809590959B01AC01BD01CF01ED
:1048C000089570D088F09F5790F0B92F9927B7516D
:1048D000A0F0D1F0660F771F881F991F1AF0BA95C4
:1048E000C9F712C0B13081F077D0B1E0089574C03B
:1048F000672F782F8827B85F39F0B93FCCF38695BA
:1049000077956795B395D9F73EF490958095709516
:1049100061957F4F8F4F9F4F0895E89409C097FB93
:104920003EF490958095709561957F4F8F4F9F4F86
:104930009923A9F0F92F96E9BB279395F6958795CA
:1049400077956795B795F111F8CFFAF4BB0F11F48D
:1049500060FF1BC06F5F7F4F8F4F9F4F16C0882334
:1049600011F096E911C0772321F09EE8872F762F6A
:1049700005C0662371F096E8862F70E060E02AF0AB
:104980009A95660F771F881FDAF7880F9695879597
:1049900097F9089557FD9058440F551F59F05F3F00
:1049A00071F04795880F97FB991F61F09F3F79F051
:1049B00087950895121613061406551FF2CF4695D3
:1049C000F1DF08C0161617061806991FF1CF869555
:1049D0007105610508940895E894BB276627772739
:1049E000CB0197F908950BD078C069D028F06ED02C
:1049F00018F0952309F05AC05FC01124EECFCADF2A
:104A0000A0F3959FD1F3950F50E0551F629FF001E1
:104A1000729FBB27F00DB11D639FAA27F00DB11D3A
:104A2000AA1F649F6627B00DA11D661F829F2227C3
:104A3000B00DA11D621F739FB00DA11D621F839F4A
:104A4000A00D611D221F749F3327A00D611D231F20
:104A5000849F600D211D822F762F6A2F11249F576E
:104A600050408AF0E1F088234AF0EE0FFF1FBB1F91
:104A7000661F771F881F91505040A9F79E3F510530
:104A800070F014C0AACF5F3FECF3983EDCF386953C
:104A900077956795B795F795E7959F5FC1F7FE2BDB
:104AA000880F911D9695879597F9089597F99F67B7
:104AB00080E870E060E008959FEF80EC08950024A6
:104AC0000A941616170618060906089500240A9473
:104AD00012161306140605060895092E0394000CF9
:104AE00011F4882352F0BB0F40F4BF2B11F460FF88
:104AF00004C06F5F7F4F8F4F9F4F08950F931F9399
:104B0000CF93DF938230910510F482E090E0E09142
:104B1000CD04F091CE0420E030E0A0E0B0E030978A
:104B200019F1408151810281138148175907C8F05A
:104B30008417950769F4109731F012960C93129729
:104B400013961C9327C00093CD041093CE0422C06B
:104B50002115310519F04217530718F49A01BD01C8
:104B6000EF01DF01F801DBCF21153105F9F0281B3A
:104B7000390B2430310580F48A819B8161157105E0
:104B800021F0FB019383828304C09093CE04809331
:104B9000CD04FE01329644C0FE01E20FF31F819363
:104BA000919322503109398328833AC02091CB0454
:104BB0003091CC04232B41F42091B9013091BA01FA
:104BC0003093CC042093CB042091B7013091B801ED
:104BD0002115310541F42DB73EB74091BB015091ED
:104BE000BC01241B350BE091CB04F091CC04E217FF
:104BF000F307A0F42E1B3F0B2817390778F0AC0100
:104C00004E5F5F4F2417350748F04E0F5F1F5093DC
:104C1000CC044093CB048193919302C0E0E0F0E098
:104C2000CF01DF91CF911F910F910895CF93DF9323
:104C3000009709F481C0FC01329713821282A0917F
:104C4000CD04B091CE04109781F420813181820F80
:104C5000931F2091CB043091CC042817390751F5CC
:104C6000F093CC04E093CB0467C0ED0120E030E08A
:104C7000CE17DF0740F44A815B819E014115510543
:104C8000F1F0EA01F5CFD383C28340815181840FD3
:104C9000951FC817D90759F488819981840F951FEA
:104CA0000296918380838A819B81938382832115DD
:104CB000310529F4F093CE04E093CD043DC0E90121
:104CC000FB83EA8349915991C40FD51FEC17FD0767
:104CD00061F480819181840F951F0296E901998387
:104CE0008883828193819B838A83E0E0F0E012963F
:104CF0008D919C911397009719F0FD01DC01F7CF7E
:104D00008D919C9111979D012E5F3F4F820F931FB4
:104D10002091CB043091CC042817390769F43097DF
:104D200029F41092CE041092CD0402C01382128294
:104D3000B093CC04A093CB04DF91CF910895F9995F
:104D4000FECF92BD81BDF89A992780B50895262F90
:104D5000F999FECF1FBA92BD81BD20BD0FB6F89460
:0E4D6000FA9AF99A0FBE01960895F894FFCFC3
:104D6E001100000001000000C100A801B1014501C1
:104D7E000401C50080016C01C600BD018401C7009D
:104D8E00BD018401BD00020111000000F20000010E
:104D9E000001820126000801E00000010401080163
:104DAE000B010C0111010D010E010001040108019E
:104DBE00130114012F0129012401E1000001040156
:104DCE0008010B010C0111010D010E01000104017E
:104DDE000801130114012F012901240126000801E5
:104DEE00FD000001080129008000F80146020503BC
:104DFE00400440054006400740084009030AFE1FD4
:104E0E001FFF8025000000000810B071060004018D
:0E4E1E00A4016C02D804060000CF042000009E
:00000001FF
